:101A04000D0A20424720566F6C74616765203D20A3
:101A140025650D0A000D0A2056444420766F6C7427
:101A2400616765203D2025650D0A00696E70757437
:101A34003A2534642C766F6C74203A202534642063
:101A44006D760D0A006164635F76616C75653A2595
:101A540034642C6164635F6D696E3A2534642C616F
:101A640064635F6D61783A2534642C6164635F74E8
:101A74006172676574203A20253464202C206475D3
:0C1A84007479203A20253364200D0A00FC
:101D1500410081004100870041009D0041008F0185
:101D250042008900004400910000000041008D0040
:101D350042008B000041008E02410076014200778F
:101D45000000420079000042007B000042007D0057
:061D55000042007F0000C7
:0B000E009000C5EBF0A3EAF0A3E9F0BE
:10001900E4A3F0A3F09000C5E0FBA3E0FAA3E0F9A4
:10002900A3E0FEA3E0F5828E831205FF6020900015
:10003900C5E0A3E0A3E0A3E475F0011206A585F0ED
:0E00490082F5831205FFFDE4FF121E9880C7AA
:010057002286
:101ECD00900076E06005D285E4F022C28590007620
:031EDD007401F09D
:011EE00022DF
:071EF40053B1DF43B22022CD
:041D9B00AD07AC06DE
:101D9F00E4FBFAAFD1EF7F00FEABD9E42BFFEA3EB5
:101DAF00CF2401CF3400FE12063E7C007D64120664
:0F1DBF0050AA06AB07EAF5D3EFF5DBD2DED2DF91
:011DCE0022F2
:041DCF00AD07AC06AA
:101DD300E4FBFAAFD1EF7F00FEABD9E42BFFEA3E81
:101DE300CF2401CF3400FE12063E7C007D64120630
:0F1DF30050AA06AB07EAF5D2EFF5DAD2DED2DF5F
:011E020022BD
:101A9000900044EEF0A3EFF053B3FD43B40243DEF5
:101AA0000253B3FB43B40443DE0153DF3F43DF047F
:101AB00053DFFC900044E0FEA3E0FFFBAA06E4F93C
:101AC000F87F607EE37D16FC120746EF24FFFFEEF1
:101AD00034FFFEED34FFFDEC34FFFC78081207F70D
:101AE0008FD1900044E0FEA3E0FFFBAA06E4F9F8E2
:101AF0007F607EE37D16FC120746EF24FFFFEE3485
:101B0000FFFEED34FFFDEC34FFFCEFE48FD97F6482
:0B1B1000FE121DCFE4FFFE121D9B2201
:101D5C0090009DE0FFC374649FFFE49400FE121D8D
:101D6C00CF90008FE0601590009DE004F0B4641EED
:101D7C00E490008FF090009D7464F02290009DE040
:0F1D8C0014F0700A90008F04F0E490009DF02294
:1011E000A2AF9212C2AF75C7AA75C755439F01A29D
:1011F0001292AF75AF0475A60DE4F5A7A2AF9212D7
:10120000C2AF75C7AA75C75543A401A21292AFAD6C
:10121000AEED54F0900045F0ED540FFD75A60CE4D2
:10122000F5A7A2AF9212C2AF75C7AA75C75543A45E
:1012300001A21292AFAFAEEF75F010A47C002DFDAD
:10124000EC35F0FCE412037A90008312080AE4FF04
:10125000FE7D407C40900083E0F8A3E0F9A3E0FA33
:10126000A3E0FB120156E4FBFA7980784012025F9A
:1012700090009912080AA2AF9212C2AF75C7AA7560
:10128000C755539FFEA21292AF43E80853E8F843B4
:10129000E10143E13043E20E43A210C2EFD2EE304F
:1012A000EFFD900082E5C3F0900088E5C2F0AFC387
:1012B000EF75F010A4ADC27C002DFDEC35F0FCE420
:1012C00012037AAB07AA06A905A804E4FFFE7D80F5
:1012D0007C4512025F900099E0F8A3E0F9A3E0FAE0
:1012E000A3E0FB12015690009512080A7BFF7A1AC0
:1012F0007904900099E0FCA3E0FDA3E0FEA3E0FFE9
:1013000090004912080A1209527BFF7A1A79199043
:101310000095E0FCA3E0FDA3E0FEA3E0FF90004900
:0613200012080A12095236
:0113260022A4
:061EFB0090008DE0FF22C3
:061F010090008DEFF022BC
:10145E00E4900006F0A3F0121EFBEF700302157F5E
:10146E00E4FF121F0190008BE0FFA3E0900006CF77
:10147E00F0A3EFF090008EE0146079046003021583
:10148E007F900091E0F8A3E0F9A3E0FAA3E0FB90CF
:10149E000006E0FEA3E0FFE4FCFDEB2FFFEA3EFEBC
:1014AE00ED39FDEC38FC90009112080A900077E4BB
:1014BE0075F0011206A5AFF0FEE4FCFD7B0FFAF904
:1014CE00F8D31207E6400302157FE4900077F0A3ED
:1014DE00F0900091E0FCA3E0FDA3E0FEA3E0FF7816
:1014EE00041207F7900089EEF0A3EFF090008E74CF
:1014FE0001F0807D900091E0FCA3E0FDA3E0FEA34F
:10150E00E0FFC006C007900089E0FEA3E0FFFBAA43
:10151E0006E4D007D006C3EF9BFFEE9AFEED9400D3
:10152E00FDEC9400FC90009112080A900091E0F8F6
:10153E00A3E0F9A3E0FAA3E0FB900006E0FEA3E02F
:10154E00FFE4FCFDEB2FFFEA3EFEED39FDEC38FC2F
:10155E0090009112080A900091E0FCA3E0FDA3E038
:10156E00FEA3E0FF78041207F7900089EEF0A3EFD8
:09157E00F0900089E0FEA3E0FFFB
:011587002241
:101E6200E490008EF090009112081600000000E449
:0B1E7200900089F0A3F0FF121F012276
:081C19009000CAEEF0A3EFF009
:101C2100E4A3F0A3F0AD07AC0612037A900095E0AF
:101C3100F8A3E0F9A3E0FAA3E0FB1201567B007AD6
:101C4100F0797F784512025F1203B39000CCEEF079
:101C5100A3EFF07BFF7A1A792F9000CAE0FDA3E091
:101C6100900049CDF0A3EDF0A3EEF0A3EFF012093F
:091C7100529000CCE0FEA3E0FF5C
:011C7A002247
:080D6A00900006EEF0A3EFF08B
:100D7200E4A3F0A3F0A3F0A3F07F2E7E09A37402F4
:100D8200F0A37458F0E4A3F0A3F0A3F0A3F0A3F04F
:100D9200A37464F07C107D001208BAE47BE47A0C40
:100DA200F9F8120746900008EEF0A3EFF090000C5D
:100DB200E0FEA3E0FF7C107D001208BAE47BE47A37
:100DC2000CF9F812074690000AEEF0A3EFF090003B
:100DD20006E0FCA3E0FDD39FEC9E500A90000AE0DF
:100DE200FEA3E0FF8004AE04AF05900010EEF0A376
:100DF200EFF0900008E0FCA3E0FDD39FEC9E5006CC
:100E0200AE04AF058008900010E0FEA3E0FF900062
:100E120010EEF0A3EFF090000AE0FCA3E0FDC3EFB8
:100E22009DFDEE9CFCE412037AC004C005C006C01E
:100E320007900012E0FCA3E0FDE412037AD003D095
:100E420002D001D000120156C004C005C006C0077E
:100E520090000AE0FEA3E0FFC3900009E09FFD902E
:100E62000008E09EFCE412037AA804A905AA06ABD6
:100E720007D007D006D005D00412025FE4FBFA794E
:100E820080783F1200651203B390000EEEF0A3EFDC
:100E9200F0E4FCFD7B64FAF9F8D31207E650067E13
:100EA200007F64800890000EE0FEA3E0FF90000E39
:100EB200EEF0A3EFF07BFF7A1A7949900006E0FD8D
:100EC200A3E0900049CDF0A3EDF090000AE0FDA36D
:100ED200E090004BCDF0A3EDF0900008E0FDA3E020
:100EE20090004DCDF0A3EDF0900010E0FDA3E09056
:100EF200004FCDF0A3EDF0A3EEF0A3EFF0120952F4
:080F020090000EE0FEA3E0FFE9
:010F0A0022C4
:10181B00E4900000F0A3F0900002F0A3F09000041D
:10182B00F0A3F012145E900000EEF0A3EFF0900026
:10183B0000E0FCA3E0FDE412037AE4FBFAF9F812F2
:10184B0002FC40067E007F008008900000E0FEA3B3
:10185B00E0FF900000EEF0A3EFF0900000E0FEA39D
:10186B00E0FFE4FCFDFB7A10F9F8D31207E6500613
:10187B007E107F008008900000E0FEA3E0FF900048
:10188B0000EEF0A3EFF0900000E0FFA3E090000467
:10189B00CFF0A3EFF0900004E0FEA3E0FF120D6A7F
:1018AB00900002EEF0A3EFF0900002E0FEA3E0FF49
:1018BB00121D9B900002E0FEA3E0FFC374649FFF28
:1018CB00E49EFE121DCFD2EE900004E0FEA3E0FFDB
:0118DB0022EA
:03005B00021C7B09
:101C7B00C0E0C0F0C083C082C0D075D000C004C02B
:101C8B0005C006C007AFC3EF75F010A4ADC27C0052
:101C9B002DFFEC35F0A2E713FEEF1325E0FFEE333B
:101CAB0090008BF0A3EFF07F01121F01C2EFD00762
:101CBB00D006D005D004D0D0D082D083D0F0D0E0E5
:011CCB0032E6
:10158800900044EFF01211E0900044E0B4080040ED
:10159800030216709015A3F82828730215BB0215CC
:1015A800D00215E80215FF02161602162D0216447F
:1015B80002165B53E8F043B38053B47FE4F5F64377
:1015C800F60143E10102167053E8F043E80143AC29
:1015D8000153ADFEE4F5F643F60243E1010216704D
:1015E80053E8F043E80243B18053B27FE4F5F64391
:1015F800F60443E101807153E8F043E80343B14046
:1016080053B2BFE4F5F643F60843E101805A53E8C4
:10161800F043E80443B12053B2DFE4F5F643F61093
:1016280043E101804353E8F043E80543B11053B266
:10163800EFE4F5F643F62043E101802C53E8F0434C
:10164800E80643B10853B2F7E4F5F643F64043E140
:1016580001801553E8F043E80743B30253B4FDE4AF
:10166800F5F643F68043E10143E13043E20E53A22D
:0D167800EFC2EFD2EED2AED2AF121E622250
:101B1B0090007FE475F0011206A5FEC3E5F0941268
:101B2B00EE94004007E490007FF0A3F090007DE47A
:101B3B0075F0011206A5AFF0FEE4FCFD7BF47A0113
:101B4B00F9F8D31207E6500AE490007DF0A3F012E7
:101B5B001ECD90007BE475F0011206A5AFF0FEE4FC
:101B6B00FCFD7B14FAF9F8D31207E6500AE4900057
:101B7B007BF0A3F012181B900079E475F0011206AC
:101B8B00A5AFF0FEE4FCFD7BE87A03F9F8D312076E
:0A1B9B00E65007E4900079F0A3F093
:011BA500221D
:03000B00021CCC08
:101CCC00C0E0C0F0C083C082C0D075D000C000C0DE
:101CDC0001C002C003C004C005C006C0079000814B
:101CEC00E0F58C900087E0F58AC28D121B1BD007A3
:101CFC00D006D005D004D003D002D001D000D0D073
:091D0C00D082D083D0F0D0E03287
:101E0300E4900044F0A3F0F5915389F043890190E5
:101E1300008174F8F09000877430F0758CF8F58ABF
:061E2300D2A9D2AFD28C5F
:011E29002296
:101E2A009000487401F0A31208160001C2007F0056
:0C1E3A007E367D6E7C01120F0BD29922C7
:101EE100121976E4F5B1F5B2F5B3F5B4F5ACF5AD8B
:031EF100D2AF224B
:101E7D00121EE1121E2A7F987E3A121A907F0512C9
:0B1E8D001588121EF4121E0380FE22B6
:080003003099FDC2998F99228A
:101BA600A2AF9212C2AF75C7AA75C755439F01A2CD
:101BB6001292AF75A630E4F5A775AF04A2AF9212E4
:101BC600C2AF75C7AA75C75543A401A21292AF85C5
:101BD600AE1275A631F5A7A2AF9212C2AF75C7AA0B
:101BE60075C75543A401A21292AF85AE13A2AF9258
:101BF60012C2AF75C7AA75C755539FFEA21292AF00
:101C060075C7AA75C75585128475C7AA75C7558540
:021C1600138534
:011C180022A9
:10197600E58720E403021A03A2AF9212C2AF75C72D
:10198600AA75C755439F01A21292AF75A638E4F512
:10199600A775AF04A2AF9212C2AF75C7AA75C75595
:1019A60043A401A21292AF85AE0D75A639F5A7A282
:1019B600AF9212C2AF75C7AA75C75543A401A2124A
:1019C60092AF85AE0EA2AF9212C2AF75C7AA75C707
:1019D60055539FFEA21292AF75C7AA75C755850DBE
:1019E6008475C7AA75C755850E85A2AF9212C2AF78
:0D19F60075C7AA75C755539FFEA21292AF88
:011A030022C0
:101685009000B512080A538EF74389019000B9E01E
:101695007002A3E0700302174E7B407A42790F78FF
:1016A500009000B5E0FCA3E0FDA3E0FEA3E0FF127F
:1016B5000746A804A905AA06AB079000BBE0FEA350
:1016C500E0FFE4FCFD1206BBE47B0CFAF9F8120717
:1016D50046C374FF9FFF74FF9EFEE49DFDE49CFCE2
:1016E500EFE48F8A7B407A42790FF89000B5E0FCF1
:1016F500A3E0FDA3E0FEA3E0FF120746A804A905A9
:10170500AA06AB079000BBE0FEA3E0FFE4FCFD12D8
:1017150006BBE47B0CFAF9F8120746C374FF9FFF7A
:1017250074FF9EFEE49DFDE49CFC78081207F78F8C
:101735008CD28C308DFDC28D9000BAE024FFF090E4
:0C17450000B9E034FFF0021691C28C22C3
:101751009000BD12080A538EEF4389109000C1E03A
:101761007002A3E070030218187B407A42790F7867
:10177100009000BDE0FCA3E0FDA3E0FEA3E0FF12AA
:101781000746C004A905AA06AB079000C3E0FEA363
:10179100E0FF7C007D0C120650E4FCFDD000120637
:1017A100BBC3E49FFFE49EFE74019DFDE49CFCEF3E
:1017B100E48F8B7B407A42790FF89000BDE0FCA367
:1017C100E0FDA3E0FEA3E0FF120746C004A905AABD
:1017D10006AB079000C3E0FEA3E0FF7C007D0C1286
:1017E1000650E4FCFDD0001206BBC3E49FFFE49E5B
:1017F100FE74019DFDE49CFC78081207F78F8DD2E1
:101801008E308FFDC28F9000C2E024FFF09000C1A6
:0A181100E034FFF002175DC28E22E2
:1010900090009E12080AE4F5919000A2E0FEA3E001
:1010A0008EF012088D10C9000110CE000410D60079
:1010B0001010DE002010E6004010EE008010F60157
:1010C0000010FE02000000110453C98F803653C97E
:1010D0008F43C910802E53C98F43C920802653C91E
:1010E0008F43C930801E53C98F43C940801653C9EE
:1010F0008F43C950800E53C98F43C960800653C9BE
:101100008F43C970C2C843C98043C9049000A4E09A
:101110007002A3E070030211DD7B407A42790F7800
:101120000090009EE0FCA3E0FDA3E0FEA3E0FF1220
:1011300007469000A6E0F8A3E0F9A3E0FAA3E0FBDD
:101140001206BBC006C0079000A2E0FEA3E0FFFBB2
:10115000AA06E4F9F8D007D006120746C3E49FFFB9
:10116000E49EFE74019DFDE49CFCEFE48FCC7B408B
:101170007A42790FF890009EE0FCA3E0FDA3E0FE28
:10118000A3E0FF1207469000A6E0F8A3E0F9A3E071
:10119000FAA3E0FB1206BBC006C0079000A2E0FE67
:1011A000A3E0FFFBAA06E4F9F8D007D00612074631
:1011B000C3E49FFFE49EFE74019DFDE49CFC78085F
:1011C0001207F78FCDD2CA30CFFDC2CF9000A5E075
:1011D00024FFF09000A4E034FFF002110CC2CA22F8
:101327009000AA12080AE4F5919000AEE024FE604E
:101337002124FE602524FC602924F8602D24F06018
:101347003124E0603524C06039247F703B53C4F8F2
:10135700803653C4F843C401802E53C4F843C402F3
:10136700802653C4F843C403801E53C4F843C404FF
:10137700801653C4F843C405800E53C4F843C4060B
:10138700800653C4F843C4079000AFE07002A3E09F
:10139700700302145A53C4EF7B407A42790F7800E6
:1013A7009000AAE0FCA3E0FDA3E0FEA3E0FF120784
:1013B700469000B1E0F8A3E0F9A3E0FAA3E0FB123E
:1013C70006BBC0079000AEE0FFFBE4FAF9F8D007D0
:1013D700120746C3E49FFFE49EFE74019DFDE49C53
:1013E700FCEFE48FC57B407A42790FF89000AAE0C2
:1013F700FCA3E0FDA3E0FEA3E0FF1207469000B1C7
:10140700E0F8A3E0F9A3E0FAA3E0FB1206BBC007EC
:101417009000AEE0FFFBE4FAF9F8D007120746C3E5
:10142700E49FFFE49EFE74019DFDE49CFC78081296
:1014370007F78FC643C408E5C444EF64EF60F85369
:10144700C4EF9000B0E024FFF09000AFE034FFF06D
:0714570002138F53C4F722BA
:101E4600EF14600D14600D14600E2403700DD2A9FA
:0C1E560022D2AB22439B8022439C02223C
:100F0B0090004412080A900048E0146058147003D3
:100F1B000210032402600302108F53B1BF43B2408F
:100F2B0043B18053B27F75985043892043878043E8
:100F3B008E1053C4DFE47B10FAF9F8900044E0FC08
:100F4B00A3E0FDA3E0FEA3E0FF120746900049E0FB
:100F5B00F8A3E0F9A3E0FAA3E0FB120746EFF404D1
:100F6B00F58DD28E2253B1BF43B24043B18053B201
:100F7B007F75985043878053C4F843C420E47B109B
:100F8B00FAF9F8900044E0FCA3E0FDA3E0FEA3E037
:100F9B00FF120746900049E0F8A3E0F9A3E0FAA39B
:100FAB00E0FB120746C3E49FFFE49EFE74019DFD28
:100FBB00E49CFC78081207F78FC6E47B10FAF9F86B
:100FCB00900044E0FCA3E0FDA3E0FEA3E0FF1207CA
:100FDB0046900049E0F8A3E0F9A3E0FAA3E0FB1286
:100FEB000746C3E49FFFE49EFE74019DFDE49CFC59
:100FFB00EFE48FC543C4082253B3BF43B44043B19E
:10100B000453B2FB75F85075C480E47B10FAF9F801
:10101B00900044E0FCA3E0FDA3E0FEA3E0FF120779
:10102B0046900049E0F8A3E0F9A3E0FAA3E0FB1235
:10103B000746C3E49FFFE49EFE74019DFDE49CFC08
:10104B0078081207F78FC6E47B10FAF9F890004482
:10105B00E0FCA3E0FDA3E0FEA3E0FF120746900037
:10106B0049E0F8A3E0F9A3E0FAA3E0FB120746C3BB
:10107B00E49FFFE49EFE74019DFDE49CFCEFE48F76
:05108B00C543C408226A
:101EB300EF14600C0470103098FDAE99C29880073F
:091EC30030F8FDAE9AC2F8AF063A
:011ECC0022F3
:101E9800EF14600D047013C2998D9920990C80FB82
:0B1EA80022C2F9AF058F9A30F9FD222D
:030000000218DC07
:1018DC00787FE4F6D8FD9000007FFF7E03E4F0A350
:0A18EC00DFFCDEFA758122021931DB
:10005E0002041FE86480F8E933E83360110460F0AD
:10006E00ED33EC337009E8FCE9FDEAFEEBFF220408
:10007E0060DED3EB9FEA9EE99DE8C2E78CF0C2F703
:10008E0095F0400CE8CCF8E9CDF9EACEFAEBCFFBCF
:10009E001203EA85D0F05804700320D5B3E804703B
:1000AE00075002B2D502042992D5EC0460F7E4CCD5
:1000BE00C0E0C398F8603B94186008400DD0E0FB98
:1000CE00020401E4FBFAC9FC8028E830E406E4C926
:1000DE00FBE4CAFCE830E305E4C9CACBFCE85407EC
:1000EE006010F8C3E913F9EA13FAEB13FBEC13FCF7
:1000FE00D8F130F52FC3E49CFCEF9BFFEE9AFEED9A
:10010E0099FDD0E0FBEF4E4D4C701222DB03020442
:10011E0026EC2CFCEF33FFEE33FEED33FDED30E736
:10012E00EB020401EF2BFFEE3AFEED39FDD0E0FBC2
:10013E0050130BBB0003020429ED13FDEE13FEEF6B
:08014E0013FFEC13FC02040195
:10015600EC4D6011E8497017ED33EC3304600DE4A3
:10016600FCFFFEFD22E933E8330470F802041F1297
:1001760003EA58046009E4CC248150062850090299
:100186000429284003020426C0E0EB4A7044B980E3
:1001960006D0E0FB020415EF4E701CBD8008EBFF95
:1001A600EAFEE9FD80EBE98DF0A4FEE5F002023FF0
:1001B600E9CDF9EAFEEBFFEF89F0A4FCE5F0CE8984
:1001C600F0A42EFFE435F0CD89F0A42DFEE435F041
:1001D6008067EF4E7005BD80D780C3EF8BF0A4AC6F
:1001E600F0EE8BF0A42CFCE435F0F8EF8AF0A42CAA
:1001F600E5F038FCE433CB8DF0A42CFCE5F03BF8BD
:10020600EE8AF0A42CFCE5F038F8E433CF89F0A4AC
:100216002CFCE5F038CF3400CE89F0A42FFFE5F0B2
:100226003EFEE433C98DF0A42EFEE5F039CD8AF00A
:10023600A42FFFE5F03EFEE43DFD33D0E0FB500782
:100246000BBB000F020429EC2CFCEF33FFEE33FE50
:06025600ED33FD0204017E
:10025C00020429EC5D046005E85904700302041FD4
:10026C001203EA580460F6EC4860F2EC7004FDFEF0
:10027C00FF22C860DB2481C85009C3986002500675
:10028C000204269850CAF582E9294B4A7005AB82C4
:10029C0002041575F0007C1A7880C3EF9BEE9AED82
:1002AC0099400DC3EF9BFFEE9AFEED99FDE842F0ED
:1002BC00DC23ACF0D0E0FFD0E0FED0E0FDAB822040
:1002CC00E7101BEB60BAEC2CFCEF33FFEE33FEEDCA
:1002DC0033FD020401E803F830E705C0F075F000C7
:1002EC00EF2FFFEE33FEED33FD40B830E7C280AAAE
:1002FC0074F8CC6480CCC86480C8F58204604FC3A9
:10030C00EB9FF5F0EA9E42F0E99D42F0E89C45F047
:10031C00603C501DE5825FFFE582D313CB5BCBF4D1
:10032C002B5582FB50280ABA002409B900200880FA
:10033C001DE5825BFBE582D313CF5FCFF4C3132F94
:10034C005582FF50090EBE00050DBD00010CC3EB1C
:10035C009FF5F0EA9E42F0E99D42F0E89C45F06082
:09036C0007CC4820E701B3EC22A4
:1003750075F020800E75F010800575F0087D007E03
:10038500007F003392D530D5031207D8EC334010E7
:10039500EF33FFEE33FEED33FDEC33FCD5F0ED220C
:0E03A500E5F0247EA2D513CC92E7CDCEFF2248
:1003B300EDD2E7CD33EC3392D524814006E4FFFE42
:1003C300FDFC22FCE4CFCECDCC24E0501174FF80A1
:1003D300EDC3CC13CCCD13CDCE13CECF13CF04703E
:0703E300F030D5DE0207D85F
:1008E700E50D2449F582E43400F583E0050D2290F7
:1008F7000046301003900049E475F00112084702E2
:1009070005E62009E97F2ED2098018EF540F2490BD
:10091700D43440D4FF300D0BEF24BFB41A0050037A
:100927002461FFE50E6002150E0511E51170020541
:100937001030100E900046E475F001120847EF02E0
:10094700062C0200037403D2108003E4C210F50DD5
:1009570090004612085EE4F50EF510F511E50E60FD
:10096700077F2012092A80F5750FFFC20AC209C244
:100977000BC20CC20EC20FC2111208F6FF700D3067
:1009870010057F0012093BAF11AE1022B4255FC2DC
:10099700D5C20D1208F6FF24D0B40A00501A75F01C
:1009A7000A780E30D50508B6FF0106C6A426F6203C
:1009B700D5047002D20C80D924CFB41A00EF5004AA
:1009C700C2E5D20D020C2DD20A80C6D20980C0D250
:1009D7000B80BCD2D580BAD20E80B47F2012092AF0
:1009E700200B077401B50E0040F11208E7FF12094A
:1009F7002A020964D211D20F80951208E7FB120868
:100A0700E7FA1208E7F94A4B7006792B7A0D7BFF54
:100A1700200B2EE50E602A7E008E8275830012055C
:100A2700FF60060EEE650F70F0C2D5EBC0E0EAC0BE
:100A3700E0E9C0E0EE120C8ED0E0F9D0E0FAD0E0A9
:100A4700FB1205E6FF60AAEBC0E0EAC0E0E9C0E000
:100A570012092AD0E02401F9D0E03400FAD0E0FBF3
:100A6700E50F0460DCD50FD98087D20B80A2120C6A
:100A77007060F7E50F700104120434A90F600DE5EB
:100A87000F600914F50F120D18EF60F3EA30E70253
:100A9700F404C3995079EAF4250F0430E701E4041C
:100AA700F50F800D120C7060C1EA050F250F1204B7
:100AB70034EA900075F030E701E4250F04D50F0400
:100AC700200E0114120C8EE4C0E0120D1890007570
:100AD700E0601320E70714F0120912802204F0D017
:100AE700E014C0E07F00120912E50F600712090940
:100AF700150F800B300E03120909D0E0020964D0EC
:100B0700E00480C4120C70609EE50F041204349058
:100B17000075EAF0E50F200E026001042404120CB0
:010B27008E3F
:100B280074FF04C0E0120D18120912E50F200E021E
:100B38006003120909D0E0B50FE87F4512091C903F
:100B48000075E07F2B30E7047F2DF404C0E0120924
:100B58002AD0E075F00A84C0F0120913D0E0120917
:100B680013020964791080027908C20FC211800843
:100B7800D2D5790A8004790AC2D5E50F047002F546
:100B88000FE4FAFDFEFF1208E7FC7B08200A1312A7
:100B980008E7FD7B1030090A1208E7FE1208E7FF94
:100BA8007B20EC3382D592D55013C3E43009069FDD
:100BB800FFE49EFEE4200A039DFDE49CFCE4CBF8E0
:100BC800C20AEC700CCFCECDCCE824F8F870F380D4
:100BD80017C3EF33FFEE33FEED33FDEC33FCEB339D
:100BE800FB994002FB0FD8E9EB300A05F8D0E0C4C6
:100BF80048B20AC0E00AEC4D4E4F78207B0070C224
:100C0800EAB50F0040BCC0E0120C90D0F0D0E02054
:100C18000A04C4C0E0C4B20AC0F0120913D0F0D567
:100C2800F0EB0209641208670A01530B6C5809D2E9
:100C38004C09CE420B704F0B78440B784909E743B7
:100C48000B7E550AAB460B0B450A75470D4B5009F1
:100C5800D62D09DA2E09FD2B09DE2309FB200D34D8
:100C68002A099648000009F5E50FB4FF03750F0639
:100C78001208E7FC1208E7FD1208E7FE1208E7FF72
:100C880090006E020471790AA2D5200C14300E0966
:100C9800B910020404B9080104A2D5200F025001BA
:100CA80004200B68920BB50E005034C0E07F203052
:100CB8000C197F30A20B720F720E500F120CE7C284
:100CC8000BC20FC20EC2117F30800F300E03E9C075
:100CD800E012092A300E03D0E0F9D0E0B50ECC308E
:100CE8000E177F30B9100C12092A7F58300D077F74
:100CF800788003B9080312092A300B057F2D0209F1
:100D08002A7F202011F87F2B200FF322920B80CF0F
:100D18007F00B40700500B246EF582E43400F5839D
:100D2800E0FF22286E756C6C2900D20A1208E730A1
:100D38000AF8C20A780E30D50108F60209962D5035
:100D48004349581208E72403B405004001E4900D14
:100D5800469312091B743A12091BD20C750E040231
:020D68000B6C12
:1003EA00E9D2E7C933E833F892D5EDD2E7CD33EC59
:0703FA0033FC5002B2D522D2
:10040100EC30E7100FBF000C0EBE00080DBD00045C
:100411000BEB6014A2D5EB13FCED92E7FD2274FF08
:10042100FCFDFEFF22E480F8A2D574FF13FC7D8061
:03043100E480EF75
:10043400F920E73624F950037907E4F42402FBE5B4
:1004440082158270021583DBF6E024FB501BE96001
:1004540014E4F0E582158270021583E004F0B40A16
:0D04640008E4F0D9EE7401F00A22C2D5229E
:10047100ED33EC3392D5FA602AB4FF33EDC2E77B5A
:10048100FF60067A047996E4227A04799F20D504E4
:100491007A04799A224E614E002B494E46002D492D
:1004A1004E4600E47A08F0A3DAFC7B00740722C010
:1004B10083C082ECC0E0EDC0E0EEC0E0EFC0E0EA56
:1004C10075F010A4CAABF075F04DA42BFBE435F028
:1004D100FCEA2410FAEB34C5FBEC34D9FCEDC2E79D
:1004E100FF75F056A4F42411C5F0F434C58FF0A4BF
:1004F1002AE5F03BE43CF020E7141205A6D0E0FF2A
:10050100D0E0FED0E0FDD0E0FC12025F8014F404E4
:100511001205A6D0E0FFD0E0FED0E0FDD0E0FC1255
:100521000156D082D083E0FAEDD2E7CD33EC33240B
:1005310082FBE4C3CF33CFCE33CECD33CD33DBF328
:100541007B0775F00A846004F0A31B0AE5F0F0A3B1
:100551008FF0740AA4FFACF08EF0740AA42CFEACE8
:10056100F050010C8DF0740AA42CFDE435F0F0A3D9
:05057100DBDE7407222F
:100576003F8000004120000042C80000447A00008D
:10058600461C400047C35000497424004B1896800F
:100596004CBEBC205A0E1BCA6753C21C749DC5AE06
:1005A600FB60065407601C23231205D4EB54386005
:1005B600091205C01205CF120156ECF8EDF9EEFA54
:1005C600EFCB22EB1205CF80F1543803241C9005A3
:1005D60076FE93FC0EEE93FD0EEE930ECE93FF2267
:1018F600021E7DE493A3F8E493A34003F68001F26D
:1019060008DFF48029E493A3F85407240CC8C333F2
:10191600C4540F4420C8834004F456800146F6DFC1
:10192600E4800B0102040810204080901D15E47E1F
:10193600019360BCA3FF543F30E509541FFEE493B6
:10194600A360010ECF54C025E060A840B8E493A37D
:10195600FAE493A3F8E493A3C8C582C8CAC583CAA8
:10196600F0A3C8C582C8CAC583CADFE9DEE780BE60
:011D5B000087
:1005E600BB010689828A83E0225002E722BBFE0213
:0905F600E32289828A83E4932246
:1005FF00BB010CE58229F582E5833AF583E02250B1
:10060F0006E92582F8E622BBFE06E92582F8E222FA
:0D061F00E58229F582E5833AF583E4932214
:10062C00BB010689828A83F0225002F722BBFE01AD
:02063C00F322A7
:10063E00EF8DF0A4A8F0CF8CF0A428CE8DF0A42ED0
:02064E00FE228A
:10065000BC000BBE0029EF8DF084FFADF022E4CC8E
:10066000F875F008EF2FFFEE33FEEC33FCEE9DEC57
:10067000984005FCEE9DFE0FD5F0E9E4CEFD22ED9D
:10068000F8F5F0EE8420D21CFEADF075F008EF2FE7
:10069000FFED33FD4007985006D5F0F222C398FDD8
:0506A0000FD5F0EA2275
:1006A500A3F8E0C5F025F0F0E58215827002158308
:0606B500E0C838F0E82265
:1006BB00E88FF0A4CC8BF0A42CFCE98EF0A42CFCDE
:1006CB008AF0EDA42CFCEA8EF0A4CDA8F08BF0A45C
:1006DB002DCC3825F0FDE98FF0A42CCD35F0FCEBBB
:1006EB008EF0A4FEA9F0EB8FF0A4CFC5F02ECD3980
:0F06FB00FEE43CFCEAA42DCE35F0FDE43CFC22ED
:10070A0075F008758200EF2FFFEE33FECD33CDCCA6
:10071A0033CCC58233C5829BED9AEC99E582984029
:10072A000CF582EE9BFEED9AFDEC99FC0FD5F0D606
:10073A00E4CEFBE4CDFAE4CCF9A88222B800C1B930
:10074A000059BA002DEC8BF084CFCECDFCE5F0CB6E
:10075A00F97818EF2FFFEE33FEED33FDEC33FCEBA7
:10076A0033FB10D703994004EB99FB0FD8E5E4F962
:10077A00FA227818EF2FFFEE33FEED33FDEC33FC4F
:10078A00C933C910D7059BE99A4007EC9BFCE99A43
:10079A00F90FD8E0E4C9FAE4CCFB2275F010EF2F88
:1007AA00FFEE33FEED33FDCC33CCC833C810D70788
:1007BA009BEC9AE899400AED9BFDEC9AFCE899F8C3
:0E07CA000FD5F0DAE4CDFBE4CCFAE4C8F92256
:0E07D800C3E49FFFE49EFEE49DFDE49CFC2232
:1007E600EB9FF5F0EA9E42F0E99D42F0E89C45F069
:0107F60022E0
:1007F700E8600FECC313FCED13FDEE13FEEF13FFE0
:03080700D8F12203
:0C080A00ECF0A3EDF0A3EEF0A3EFF02261
:10081600A8828583F0D083D08212082D12082D126B
:10082600082D12082DE473E493A3C583C5F0C58390
:10083600C8C582C8F0A3C583C5F0C583C8C582C82C
:01084600228F
:10084700F8E0FBA3A3E0F925F0F0E582158270023A
:070857001583E0FA38F022DE
:09085E00EBF0A3EAF0A3E9F0229B
:10086700D083D082F8E4937012740193700DA3A320
:1008770093F8740193F5828883E473740293686034
:06088700EFA3A3A380DF34
:10088D00D083D082F8E4937012740193700DA3A3FA
:10089D0093F8740193F5828883E473740293B5F031
:0D08AD00067403936860E9A3A3A3A380D899
:1008BA00EC8EF0A4CCC5F0CCCDF8EFA4CEC5F02DCB
:1008CA00FDE43CFCE8A42EC8C5F03DFDE43CFCEF89
:0D08DA00A4FFE5F028FEE43DFDE43CFC2217
:00000001FF
