:10103C006164635F76616C75653A002C766F6C74D5
:10104C003A006D762C415664643A006D760D0A00B8
:10105C002C6164635F6D696E3A002C6164635F6D33
:10106C0061783A002C6164635F7461726765743AED
:0B107C00002C647574793A000D0A0026
:1010D000410032004100380041005200C10142008D
:1010E0003A00004400430000000042003F0000427C
:1010F0000050000042003D00004100420341003C1E
:101100000041002B0142002C000042002E00004252
:0411100000300000AB
:1012A2007401A807088002C333D8FCFF90003CE019
:0A12B2005F60047F0180027F0022CC
:10120D00ED601690003CE0FE7401A807088002C353
:10121D0033D8FC4E90003CF02290003CE0FE74016F
:10122D00A807088002C333D8FCF45E90003CF0227E
:0B119B00900028EBF0A3EAF0A3E9F0BD
:1011A600E4FFFE900028E0FBA3E0FAA3E0F98F82BB
:1011B6008E831203BB601B900028E0A3E0A3E00F20
:1011C600EFAC0670010E14F5828C831203BBF59901
:0211D60080D1C6
:0111D80022F4
:040BB400AB07AA06DB
:100BB800900024E4F0A3740FF0900024E0FEA3E07A
:100BC8002414F58274003EF583E4F0EBAE02781F3E
:100BD800CEC313CE13D8F9FF900026EEF0A3EFF0A2
:100BE8004E600DEBF4FFEAF4FEEF2401FBE43EFA5D
:100BF800900025E024FFF0900024E034FFF07C0012
:100C08007D0AAF03AE021203FAED2430FFE0FCA325
:100C1800E02414F58274003CF583EFF07C007D0A33
:100C2800AF03AE021203FAAA06AB07EB4A70C190F3
:100C38000026E07002A3E0601E900025E024FFF08B
:100C4800900024E034FFF0E0FEA3E02414F5827461
:100C5800003EF583742DF0900024E0FEA3E02414F8
:0A0C6800F974003EFA7B0112119BA3
:010C7200225F
:10000E0090002BE06005D285E4F022C28590002B93
:03001E007401F07A
:0100210022BC
:0700030053B1DF43B22022DC
:04002600AD07AC0670
:10002A00E4FBFAAFD1EF7F00FEABD9E42BFFEA3E47
:10003A00CF2401CF3400FE1203E87C007D64120352
:0F004A00FAAA06AB07EAF5D3EFF5DBD2DED2DF79
:010059002284
:0411D900AD07AC06AC
:1011DD00E4FBFAAFD1EF7F00FEABD9E42BFFEA3E83
:1011ED00CF2401CF3400FE1203E87C007D6412038E
:0F11FD00FAAA06AB07EAF5D2EFF5DAD2DED2DFB7
:01120C0022BF
:100EE000900000EEF0A3EFF053B3FD43B40243DEF5
:100EF0000253B3FB43B40443DE0153DF3F43DF043B
:100F000053DFFC900000E0FEA3E0FFFBAA06E4F93B
:100F1000F87F607EE37D16FC1204A1EF24FFFFEE54
:100F200034FFFEED34FFFDEC34FFFC78081205526F
:100F30008FD1900000E0FEA3E0FFFBAA06E4F9F8E1
:100F40007F607EE37D16FC1204A1EF24FFFFEE34E8
:100F5000FFFEED34FFFDEC34FFFCEFE48FD97F643E
:0B0F6000FE1211D9E4FFFE1200262251
:10111500900052E0FFC374649FFFE49400FE121137
:10112500D9E4FF1212A2EF6016900052E004F0B469
:101135006420E4FDFF12120D9000527464F02290B9
:101145000052E014F0700B7D01FF12120DE49000C7
:0311550052F02233
:1008E100A2AF9200C2AF75C7AA75C755439F01A2B7
:1008F1000092AF75AF0475A60DE4F5A7A2AF920003
:10090100C2AF75C7AA75C75543A401A20092AFAD86
:10091100AEED54F0900001F0ED540FFD75A60CE41E
:10092100F5A7A2AF9200C2AF75C7AA75C75543A478
:1009310001A20092AFAFAEEF75F010A47C002DFDC7
:10094100EC35F0FCE4120301900034120565E4FF7C
:10095100FE7D407C40900034E0F8A3E0F9A3E0FA8A
:10096100A3E0FB120156E4FBFA7980784012025FA2
:1009710090004C120565A2AF9200C2AF75C7AA756F
:10098100C755539FFEA20092AF43E80853E8F843CE
:10099100E10143E13043E20E43A210C2EFD2EE3057
:1009A100EFFD900033E5C3F0900039E5C2F0AFC32D
:1009B100EF75F010A4ADC27C002DFDEC35F0FCE428
:1009C100120301AB07AA06A905A804E4FFFE7D8076
:1009D1007C4512025F90004CE0F8A3E0F9A3E0FA35
:0C09E100A3E0FB120156900048120565CF
:0109ED0022E7
:050C7300900004EDF00B
:100C7800E4A3F0900042E0602F24FE6003020D130D
:100C8800E4900005F0900005E0C39F501420EFFDAC
:100C9800E490003FF0A3F0D2EE900005E004F0806D
:100CA800E4E4900042F08063E4900005F0900004D2
:100CB800E0FFA3E0C39F503820EFFD900043E0F829
:100CC800A3E0F9A3E0FAA3E0FB90003FE0FEA3E075
:100CD800FFE4FCFDEB2FFFEA3EFEED39FDEC38FCAE
:100CE800900043120565D2EE900005E004F080BD47
:100CF800900043E0FCA3E0FDA3E0FEA3E0FF78033F
:100D080012055290003AEEF0A3EFF090004312055E
:0D0D1800710000000090003AE0FEA3E0FF33
:010D250022AB
:1007D100900042E01470030208580460030208D834
:1007E10020EFFD900043E0F8A3E0F9A3E0FAA3E0D5
:1007F100FB90003FE0FEA3E0FFE4FCFDEB2FFFEAEE
:100801003EFEED39FDEC38FC900043120565900089
:100811002CE475F00112044FAFF0FEE4FCFD7B0700
:10082100FAF9F8D312054140030208D8E490002CEC
:10083100F0A3F0900043E0FCA3E0FDA3E0FEA3E001
:10084100FF780312055290003AEEF0A3EFF090000A
:10085100427401F00208D820EFFD900043E0FCA3B0
:10086100E0FDA3E0FEA3E0FFC006C00790003AE070
:10087100FEA3E0FFFBAA06E4D007D006C3EF9BFF6F
:10088100EE9AFEED9400FDEC9400FC9000431205FD
:1008910065900043E0F8A3E0F9A3E0FAA3E0FB9040
:1008A100003FE0FEA3E0FFE4FCFDEB2FFFEA3EFE8C
:1008B100ED39FDEC38FC900043120565900043E0F2
:1008C100FCA3E0FDA3E0FEA3E0FF78031205529034
:0F08D100003AEEF0A3EFF090003AE0FEA3E0FF54
:0108E00022F5
:1012BC009000427402F0A312057100000000E4904B
:0612CC00003AF0A3F0223D
:080DC000900053EEF0A3EFF0E8
:100DC800E4A3F0A3F0AD07AC06120301900048E0DD
:100DD800F8A3E0F9A3E0FAA3E0FB1201567B007A3E
:100DE800F0797F784512025F12033A900055EEF0D1
:100DF800A3EFF07BFF7A10793C12119B900053E02F
:100E0800FEA3E0FF120BB47BFF7A10794712119B07
:100E1800900055E0FEA3E0FF120BB47BFF7A107937
:100E28004E12119B900048E0FCA3E0FDA3E0FEA356
:100E3800E0FF12033A120BB47BFF7A1079571211B4
:090E48009B900055E0FEA3E0FFC1
:010E5100227E
:0805CF00900004EEF0A3EFF030
:1005D700E4A3F0A3F0A3F0A3F0900048E0FCA3E0AD
:1005E700FDA3E0FEA3E0FF12033A90000AEEF0A39A
:1005F700EFF0E4A3F0A3F0A3F0A3F0A3F0A3F0A31C
:10060700F0A37464F090003DEEF0A3EFF090000AC1
:10061700E0FEA3E0FF7C107D001205A2C006C00724
:1006270090003DE0FEA3E0FFFBAA06E4F9F8D0073F
:10063700D0061204A1900006EEF0A3EFF090000C94
:10064700E0FEA3E0FF7C107D001205A2C006C007F4
:1006570090003DE0FEA3E0FFFBAA06E4F9F8D0070F
:10066700D0061204A1900008EEF0A3EFF09000046A
:10067700E0FCA3E0FDD39FEC9E500A900008E0FE4B
:10068700A3E0FF8004AE04AF05900010EEF0A3EFE7
:10069700F0900006E0FCA3E0FDD39FEC9E5006AE71
:1006A70004AF058008900010E0FEA3E0FF90001063
:1006B700EEF0A3EFF0900008E0FCA3E0FDC3EF9D90
:1006C700FDEE9CFCE4120301C004C005C006C00790
:1006D700900012E0FCA3E0FDE4120301D003D00276
:1006E700D001D000120156C004C005C006C0079053
:1006F7000008E0FEA3E0FFC3900007E09FFD900025
:1007070006E09EFCE4120301A804A905AA06AB07AC
:10071700D007D006D005D00412025FE4FBFA798037
:10072700783F12006512033A90000EEEF0A3EFF047
:10073700E4FCFD7B64FAF9F8D312054150067E000C
:100747007F64800890000EE0FEA3E0FF90000EEEAD
:10075700F0A3EFF07BFF7A10793C12119B90000415
:10076700E0FEA3E0FF120BB47BFF7A10795C121155
:100777009B900008E0FEA3E0FF120BB47BFF7A100A
:10078700796612119B900006E0FEA3E0FF120BB4FE
:100797007BFF7A10797012119B900010E0FEA3E0A6
:1007A700FF120BB47BFF7A10797D12119B90000E1C
:1007B700E0FEA3E0FF120BB47BFF7A1079841211DD
:0907C7009B90000EE0FEA3E0FF90
:0107D0002206
:100AEB00E4900000F0A3F0900002F0A3F090004817
:100AFB00E0FCA3E0FDA3E0FEA3E0FF12033A9000AD
:100B0B003DEEF0A3EFF0E4900050F0A3F07D087FF2
:100B1B0004120C73900000EEF0A3EFF0900050E085
:100B2B00FEA3E0FFD3900001E09F900000E09E50F9
:100B3B00028008900000E0FEA3E0FF900000EEF0C2
:100B4B00A3EFF0900000E0FEA3E0FFE4FCFDFB7AD6
:100B5B0010F9F8D312054150067E107F00800890E3
:100B6B000000E0FEA3E0FF900000EEF0A3EFF0909A
:100B7B000000E0FEA3E0FF1205CF900002EEF0A311
:100B8B00EFF0900002E0FEA3E0FF120026900002BF
:100B9B00E0FEA3E0FFC374649FFFE49EFE1211D935
:080BAB00900000E0FEA3E0FF52
:010BB300221F
:03005B00020FECA5
:100FEC00C0E0C0F0C083C082C0D075D000C004C0C7
:100FFC0005C006C007C091AFC3EF75F010A4ADC219
:10100C007C002DFFEC35F0A2E713FEEF1325E0FF7B
:10101C00EE3390003FF0A3EFF0C2EFD091D007D0A9
:10102C0006D005D004D0D0D082D083D0F0D0E0321E
:1009EE00900000EFF01208E1900000E0B408004023
:1009FE0003020AD6900A09F8282873020A21020A6D
:100A0E0036020A4E020A65020A7C020A93020AAAFA
:100A1E00020AC153E8F043B38053B47FE4F5F643C2
:100A2E00F60143E101020AD653E8F043E80143AC74
:100A3E000153ADFEE4F5F643F60243E101020AD698
:100A4E0053E8F043E80243B18053B27FE4F5F64336
:100A5E00F60443E101807153E8F043E80343B140EB
:100A6E0053B2BFE4F5F643F60843E101805A53E86A
:100A7E00F043E80443B12053B2DFE4F5F643F61039
:100A8E0043E101804353E8F043E80543B11053B20C
:100A9E00EFE4F5F643F62043E101802C53E8F043F2
:100AAE00E80643B10853B2F7E4F5F643F64043E1E6
:100ABE0001801553E8F043E80743B30253B4FDE455
:100ACE00F5F643F68043E10143E13043E20E53A2D3
:0D0ADE00EFC2EFD2EED2AED2AF1212BC22A8
:10115800900030E475F00112044FFEC3E5F09412DC
:10116800EE94004007E4900030F0A3F090002EE4E5
:1011780075F00112044FAFF0FEE4FCFD7BF47A0138
:10118800F9F8D3120541500AE490002EF0A3F012AA
:02119800000E47
:01119A002232
:03000B0002108759
:10108700C0E0C0F0C083C082C0D075D000C000C02F
:1010970001C002C003C004C005C006C007900032EB
:1010A700E0F58C900038E0F58AC28D121158D00710
:1010B700D006D005D004D003D002D001D000D0D0C4
:0910C700D082D083D0F0D0E032D9
:10123D00E4900000F0A3F05389F04389019000324F
:10124D0074F8F09000387430F0758CF8F58AD2A9E6
:04125D00D2AFD28CAE
:01126100226A
:0300230002126264
:10126200C0E0C083C08230980AD201900041E59963
:10127200F0C298309905200202C299D082D083D060
:02128200E03258
:100F6B009000001205710001C20053B1BF53B2BF14
:100F7B0075985043878053C4F843C420900000E019
:100F8B00F8A3E0F9A3E0FAA3E0FB7F607EE37D1614
:100F9B007C001204A1C3E49FFFE49EFE74019DFD3F
:100FAB00E49CFC78081205528FC6900000E0F8A371
:100FBB00E0F9A3E0FAA3E0FB7F607EE37D167C0003
:100FCB001204A1C3E49FFFE49EFE74019DFDE49C0B
:100FDB00FCEFE48FC543C408D2ACD2AFD299D20296
:010FEB0022E3
:100E5200E58720E403020EDFA2AF9200C2AF75C79E
:100E6200AA75C755439F01A20092AF75A638E4F553
:100E7200A775AF04A2AF9200C2AF75C7AA75C755D6
:100E820043A401A20092AF85AE0875A639F5A7A2C8
:100E9200AF9200C2AF75C7AA75C75543A401A2009D
:100EA20092AF85AE09A2AF9200C2AF75C7AA75C74D
:100EB20055539FFEA20092AF75C7AA75C755850804
:100EC2008475C7AA75C755850985A2AF9200C2AFBE
:0D0ED20075C7AA75C755539FFEA20092AFC9
:010EDF0022F0
:1012D200120E52E4F5B1F5B2F5B3F5B4F5ACF5ADD5
:0312E200D2AF2266
:101284001212D2120F6B7F987E3A120EE07F051273
:0E12940009EE12000312123D120AEB80FB223B
:03000000020D26C8
:100D2600787FE4F6D8FD9000007FFF7E03E4F0A311
:0A0D3600DFFCDEFA758120020D7B60
:10005E000203A6E86480F8E933E83360110460F027
:10006E00ED33EC337009E8FCE9FDEAFEEBFF220408
:10007E0060DED3EB9FEA9EE99DE8C2E78CF0C2F703
:10008E0095F0400CE8CCF8E9CDF9EACEFAEBCFFBCF
:10009E0012037185D0F05804700320D5B3E80470B4
:1000AE00075002B2D50203B092D5EC0460F7E4CC4F
:1000BE00C0E0C398F8603B94186008400DD0E0FB98
:1000CE00020388E4FBFAC9FC8028E830E406E4C9A0
:1000DE00FBE4CAFCE830E305E4C9CACBFCE85407EC
:1000EE006010F8C3E913F9EA13FAEB13FBEC13FCF7
:1000FE00D8F130F52FC3E49CFCEF9BFFEE9AFEED9A
:10010E0099FDD0E0FBEF4E4D4C701222DB03020343
:10011E00ADEC2CFCEF33FFEE33FEED33FDED30E7AF
:10012E00EB020388EF2BFFEE3AFEED39FDD0E0FB3C
:10013E0050130BBB00030203B0ED13FDEE13FEEFE5
:08014E0013FFEC13FC0203880F
:10015600EC4D6011E8497017ED33EC3304600DE4A3
:10016600FCFFFEFD22E933E8330470F80203A61211
:10017600037158046009E4CC248150062850090212
:1001860003B02840030203ADC0E0EB4A7044B980D7
:1001960006D0E0FB02039CEF4E701CBD8008EBFF0F
:1001A600EAFEE9FD80EBE98DF0A4FEE5F002023FF0
:1001B600E9CDF9EAFEEBFFEF89F0A4FCE5F0CE8984
:1001C600F0A42EFFE435F0CD89F0A42DFEE435F041
:1001D6008067EF4E7005BD80D780C3EF8BF0A4AC6F
:1001E600F0EE8BF0A42CFCE435F0F8EF8AF0A42CAA
:1001F600E5F038FCE433CB8DF0A42CFCE5F03BF8BD
:10020600EE8AF0A42CFCE5F038F8E433CF89F0A4AC
:100216002CFCE5F038CF3400CE89F0A42FFFE5F0B2
:100226003EFEE433C98DF0A42EFEE5F039CD8AF00A
:10023600A42FFFE5F03EFEE43DFD33D0E0FB500782
:100246000BBB000F0203B0EC2CFCEF33FFEE33FECA
:06025600ED33FD020388F8
:10025C000203B0EC5D046005E8590470030203A6C8
:10026C00120371580460F6EC4860F2EC7004FDFE69
:10027C00FF22C860DB2481C85009C3986002500675
:10028C000203AD9850CAF582E9294B4A7005AB823E
:10029C0002039C75F0007C1A7880C3EF9BEE9AEDFC
:1002AC0099400DC3EF9BFFEE9AFEED99FDE842F0ED
:1002BC00DC23ACF0D0E0FFD0E0FED0E0FDAB822040
:1002CC00E7101BEB60BAEC2CFCEF33FFEE33FEEDCA
:1002DC0033FD020388E803F830E705C0F075F00041
:1002EC00EF2FFFEE33FEED33FD40B830E7C280AAAE
:1002FC0075F020800E75F010800575F0087D007E7D
:10030C00007F003392D530D503120533EC33401007
:10031C00EF33FFEE33FEED33FDEC33FCD5F0ED2285
:0E032C00E5F0247EA2D513CC92E7CDCEFF22C1
:10033A00EDD2E7CD33EC3392D524814006E4FFFEBB
:10034A00FDFC22FCE4CFCECDCC24E0501174FF801A
:10035A00EDC3CC13CCCD13CDCE13CECF13CF0470B7
:07036A00F030D5DE0205337F
:10037100E9D2E7C933E833F892D5EDD2E7CD33ECD2
:0703810033FC5002B2D5224B
:10038800EC30E7100FBF000C0EBE00080DBD0004D6
:100398000BEB6014A2D5EB13FCED92E7FD2274FF82
:1003A800FCFDFEFF22E480F8A2D574FF13FC7D80DB
:0303B800E480EFEF
:100D4000021284E493A3F8E493A34003F68001F233
:100D500008DFF48029E493A3F85407240CC8C333B4
:100D6000C4540F4420C8834004F456800146F6DF83
:100D7000E4800B01020408102040809010D0E47E33
:100D8000019360BCA3FF543F30E509541FFEE49378
:100D9000A360010ECF54C025E060A840B8E493A33F
:100DA000FAE493A3F8E493A3C8C582C8CAC583CA6A
:100DB000F0A3C8C582C8CAC583CADFE9DEE780BE22
:0111140000DA
:1003BB00BB010CE58229F582E5833AF583E02250F7
:1003CB0006E92582F8E622BBFE06E92582F8E22241
:0D03DB00E58229F582E5833AF583E493225B
:1003E800EF8DF0A4A8F0CF8CF0A428CE8DF0A42E29
:0203F800FE22E3
:1003FA00BC000BBE0029EF8DF084FFADF022E4CCE7
:10040A00F875F008EF2FFFEE33FEEC33FCEE9DECAF
:10041A00984005FCEE9DFE0FD5F0E9E4CEFD22EDF5
:10042A00F8F5F0EE8420D21CFEADF075F008EF2F3F
:10043A00FFED33FD4007985006D5F0F222C398FD30
:05044A000FD5F0EA22CD
:10044F00A3F8E0C5F025F0F0E58215827002158360
:06045F00E0C838F0E822BD
:1004650075F008758200EF2FFFEE33FECD33CDCC4E
:1004750033CCC58233C5829BED9AEC99E5829840D1
:100485000CF582EE9BFEED9AFDEC99FC0FD5F0D6AE
:10049500E4CEFBE4CDFAE4CCF9A88222B800C1B9D8
:1004A5000059BA002DEC8BF084CFCECDFCE5F0CB16
:1004B500F97818EF2FFFEE33FEED33FDEC33FCEB4F
:1004C50033FB10D703994004EB99FB0FD8E5E4F90A
:1004D500FA227818EF2FFFEE33FEED33FDEC33FCF7
:1004E500C933C910D7059BE99A4007EC9BFCE99AEB
:1004F500F90FD8E0E4C9FAE4CCFB2275F010EF2F30
:10050500FFEE33FEED33FDCC33CCC833C810D7072F
:100515009BEC9AE899400AED9BFDEC9AFCE899F86A
:0E0525000FD5F0DAE4CDFBE4CCFAE4C8F922FD
:0E053300C3E49FFFE49EFEE49DFDE49CFC22D9
:10054100EB9FF5F0EA9E42F0E99D42F0E89C45F010
:010551002287
:10055200E8600FECC313FCED13FDEE13FEEF13FF87
:03056200D8F122AB
:0C056500ECF0A3EDF0A3EEF0A3EFF02209
:10057100A8828583F0D083D0821205881205881263
:100581000588120588E473E493A3C583C5F0C58388
:10059100C8C582C8F0A3C583C5F0C583C8C582C8D4
:0105A1002237
:1005A200EC8EF0A4CCC5F0CCCDF8EFA4CEC5F02DE6
:1005B200FDE43CFCE8A42EC8C5F03DFDE43CFCEFA4
:0D05C200A4FFE5F028FEE43DFDE43CFC2232
:00000001FF
