:101A82000D0A50574D3A3078257820202C30782591
:101A9200780D0A0D0A000D0A20424720566F6C7419
:101AA200616765203D2025650D0A000D0A20564418
:101AB2004420766F6C74616765203D2025650D0AB0
:101AC200004144433A2030782534582028256520A7
:101AD20076290D0A00445554593A25642C25642C64
:051AE20025640D0A005F
:101B3000410073004100790041008D0041008001A7
:101B400042007B00004400810000000041007D0055
:101B500041007E0241006801420069000042006BC2
:101B6000000042006D000042006F00004200710062
:011B70000074
:0B000E009000B5EBF0A3EAF0A3E9F0CE
:10001900E4A3F0A3F09000B5E0FBA3E0FAA3E0F9B4
:10002900A3E0FEA3E0F5828E831205C8602090004C
:10003900B5E0A3E0A3E0A3E475F00112065C85F046
:0E00490082F5831205C8FDE4FF121CC780C7B4
:010057002286
:101CFC00900068E06005D285E4F022C2859000680F
:031D0C007401F06F
:011D0F0022B1
:071D610053B1DF43B2202261
:0F1D2300AD07AC06ECF5D3EDF5DBD2DED2DF2257
:0F1D3200AD07AC06ECF5D2EDF5DAD2DED2DF224A
:10186400900036EEF0A3EFF043DE0243DE0153DFD7
:101874003F43DF0453DFFC900036E0FEA3E0FFFBB0
:10188400AA06E4F9F87F607EE37D16FC1206FDEFFC
:1018940024FFFFEE34FFFEED34FFFDEC34FFFC7853
:1018A400081207AE8FD1900036E0FEA3E0FFFBAA3A
:1018B40006E4F9F87F607EE37D16FC1206FDEF2452
:1018C400FFFFEE34FFFEED34FFFDEC34FFFCEFE4EC
:1018D4008FD97BFF7A1A798290003BE5D1F0A3E59A
:1018E400D9F01208DC7F647E00121D32E4FF121D61
:0218F4002322AD
:101B720090008DE0FFC374649FFFE49400FE121D89
:101B820032900080E0601590008DE004F0B4641E95
:101B9200E4900080F090008D7464F02290008DE05B
:0F1BA20014F0700A90008004F0E490008DF0229F
:10119D00A2AF9212C2AF75C7AA75C755439F01A2E0
:1011AD001292AF75AF0475A60DE4F5A7A2AF92121A
:1011BD00C2AF75C7AA75C75543A401A21292AFADB0
:1011CD00AEED54F0900037F0ED540FFD75A60CE424
:1011DD00F5A7A2AF9212C2AF75C7AA75C75543A4A2
:1011ED0001A21292AFAFAEEF75F010A47C002DFDF1
:1011FD00EC35F0FCE41202829000751207C1E4FF99
:10120D00FE7D407C40900075E0F8A3E0F9A3E0FA84
:10121D00A3E0FB12005EE4FBFA79807840120167CF
:10122D009000891207C1A2AF9212C2AF75C7AA75FD
:10123D00C755539FFEA21292AF43E80853E8F843F7
:10124D00E10143E13043E20E43A210C2EFD2EE3092
:10125D00EFFD900074E5C3F090007AE5C2F0AFC3E6
:10126D00EF75F010A4ADC27C002DFDEC35F0FCE463
:10127D00120282AB07AA06A905A804E4FFFE7D8031
:10128D007C45120167900089E0F8A3E0F9A3E0FA2C
:10129D00A3E0FB12005E9000851207C17BFF7A1A56
:1012AD007998900089E0FCA3E0FDA3E0FEA3E0FFA8
:1012BD0090003B1207C11208DC7BFF7A1A79AD90C2
:1012CD000085E0FCA3E0FDA3E0FEA3E0FF90003B62
:0612DD001207C11208DC3B
:0112E30022E8
:061D680090007DE0FF2267
:061D6E0090007DEFF02261
:08141B00900006EEF0A3EFF0D3
:10142300121D68EF700302152EE4FF121D6E90006B
:101433007EE014607904600302152E900081E0F8C9
:10144300A3E0F9A3E0FAA3E0FB900006E0FEA3E02B
:10145300FFE4FCFDEB2FFFEA3EFEED39FDEC38FC2B
:101463009000811207C1900069E475F00112065CD7
:10147300AFF0FEE4FCFD7B0FFAF9F8D312079D40B1
:101483000302152EE4900069F0A3F0900081E0FCC4
:10149300A3E0FDA3E0FEA3E0FF78041207AE9000F3
:1014A3007BEEF0A3EFF090007E7401F0807D90005E
:1014B30081E0FCA3E0FDA3E0FEA3E0FFC006C007BC
:1014C30090007BE0FEA3E0FFFBAA06E4D007D00672
:1014D300C3EF9BFFEE9AFEED9400FDEC9400FC90AD
:1014E30000811207C1900081E0F8A3E0F9A3E0FABC
:1014F300A3E0FB900006E0FEA3E0FFE4FCFDEB2F7E
:10150300FFEA3EFEED39FDEC38FC9000811207C185
:10151300900081E0FCA3E0FDA3E0FEA3E0FF7804DC
:101523001207AE90007BEEF0A3EFF090007BE0FE9D
:03153300A3E0FF33
:011536002292
:101C9100E490007EF09000811207CD00000000E486
:0B1CA10090007BF0A3F0FF121D6E22EC
:100CF400E4900000F0A3F0900002F0A3F090000450
:100D0400F0A3F0AFC3EF75F010A4ADC27C002DFFCB
:100D1400EC35F0A2E713FEEF1325E0FFEE33FE12ED
:100D2400141B900000EEF0A3EFF0900000E0FCA391
:100D3400E0FDE4120282E4FBFAF9F8120204400630
:100D44007E007F008008900000E0FEA3E0FF90009A
:100D540000EEF0A3EFF0900000E0FEA3E0FFE4FC5F
:100D6400FDFB7A10F9F8D312079D50067E107F0020
:100D74008008900000E0FEA3E0FF900000EEF0A3E6
:100D8400EFF0900000E0FFA3E090003BCFF0A3EF72
:100D9400F0900000E0FCA3E0FDE4120282900085E4
:100DA400E0F8A3E0F9A3E0FAA3E0FB12005E7B0005
:100DB4007AF0797F784512016790003D1207C17B74
:100DC400FF7A1A79C31208DC900000E0FFA3E090D8
:100DD4000004CFF0A3EFF0900004E0FEA3E0FFE4F2
:100DE400FCFD7B267A0BF9F8C312079D40067E0BA7
:100DF4007F268008900004E0FEA3E0FF900004EE4C
:100E0400F0A3EFF0900004E0FEA3E0FFE4FCFD7B20
:100E1400FF7A0FF9F8D312079D50067E0F7FFF80EB
:100E240008900004E0FEA3E0FF900004EEF0A3EFBE
:100E3400F0900004E0FEA3E0FFE4EF24DAFFEE34D8
:100E4400F4FEE434FFFDE434FFFCE47B64FAF9F8D7
:100E5400120672E47BD97A04F9F81206FD900002B6
:100E6400EEF0A3EFF0900002E0FEA3E0FF121D23DA
:100E7400900002E0FEA3E0FFC374649FFFE49EFEC3
:100E8400121D327BFF7A1A79D7900002E0FFA3E0AB
:100E940090003BCFF0A3EFF0900004E0FFA3E090BC
:100EA400003DCFF0A3EFF0900000E0FFA3E090003E
:100EB4003FCFF0A3EFF01208DCD2EE900000E0FE8A
:030EC400A3E0FFA9
:010EC7002208
:03005B00021C1E66
:101C1E00C0E0C083C082C0D075D000C0077F011263
:0F1C2E001D6EC2EFD007D0D0D082D083D0E0326D
:10153700900036EFF012119D900036E0B40800409D
:101547000302161F901552F828287302156A021510
:101557007F0215970215AE0215C50215DC0215F3B9
:1015670002160A53E8F043B38053B47FE4F5F64319
:10157700F60143E10102161F53E8F043E80143ACCB
:101587000153ADFEE4F5F643F60243E10102161FEF
:1015970053E8F043E80243B18053B27FE4F5F643E2
:1015A700F60443E101807153E8F043E80343B14097
:1015B70053B2BFE4F5F643F60843E101805A53E816
:1015C700F043E80443B12053B2DFE4F5F643F610E5
:1015D70043E101804353E8F043E80543B11053B2B8
:1015E700EFE4F5F643F62043E101802C53E8F0439E
:1015F700E80643B10853B2F7E4F5F643F64043E192
:1016070001801553E8F043E80743B30253B4FDE400
:10161700F5F643F68043E10143E13043E20E53A27E
:0D162700EFC2EFD2EED2AED2AF121C912274
:10198400900071E475F00112065CFEC3E5F0941258
:10199400EE94004007E4900071F0A3F090006FE42F
:1019A40075F00112065CAFF0FEE4FCFD7BF47A01F5
:1019B400F9F8D312079D500AE490006FF0A3F012D7
:1019C4001CFC90006DE475F00112065CAFF0FEE4BF
:1019D400FCFD7B14FAF9F8D312079D500AE4900039
:1019E4006DF0A3F0120CF490006BE475F001120694
:1019F4005CAFF0FEE4FCFD7BE87A03F9F8D3120750
:0A1A04009D5007E490006BF0A3F082
:011A0E0022B5
:03000B00021AE7EF
:101AE700C0E0C0F0C083C082C0D075D000C000C0C5
:101AF70001C002C003C004C005C006C00790007340
:101B0700E0F58C900079E0F58AC28D121984D00730
:101B1700D006D005D004D003D002D001D000D0D059
:091B2700D082D083D0F0D0E0326E
:101BB100E4900036F0A3F0F5915389F04389019048
:101BC100007374F8F09000797430F0758CF8F58A30
:061BD100D2A9D2AFD28CB4
:011BD70022EB
:101C3D0090003A7401F0A31207CD0001C2007F009D
:0C1C4D007E367D6E7C01120EC8D29922FA
:101D10001218F6E4F5B1F5B2F5B3F5B4F5ACF5ADDE
:031D2000D2AF221D
:101CAC00121D10121C3D7F987E3A1218647F05128B
:0B1CBC001537121D61121BB180FE22C3
:080003003099FDC2998F99228A
:101A0F00A2AF9212C2AF75C7AA75C755439F01A265
:101A1F001292AF75A630E4F5A775AF04A2AF92127C
:101A2F00C2AF75C7AA75C75543A401A21292AF855D
:101A3F00AE1275A631F5A7A2AF9212C2AF75C7AAA3
:101A4F0075C75543A401A21292AF85AE13A2AF92F0
:101A5F0012C2AF75C7AA75C755539FFEA21292AF98
:101A6F0075C7AA75C75585128475C7AA75C75585D9
:021A7F001385CD
:011A81002242
:1018F600E58720E403021983A2AF9212C2AF75C72F
:10190600AA75C755439F01A21292AF75A638E4F592
:10191600A775AF04A2AF9212C2AF75C7AA75C75515
:1019260043A401A21292AF85AE0D75A639F5A7A202
:10193600AF9212C2AF75C7AA75C75543A401A212CA
:1019460092AF85AE0EA2AF9212C2AF75C7AA75C787
:1019560055539FFEA21292AF75C7AA75C755850D3E
:101966008475C7AA75C755850E85A2AF9212C2AFF8
:0D19760075C7AA75C755539FFEA21292AF08
:011983002241
:101BD8009000BA1207C153B1BF53B2BF53B17F537C
:101BE800B27F759850438920438780438E1053C431
:041BF800DFD28E2288
:101BFC009000BE1207C153B1BF53B2BF53B17F5354
:101C0C00B27F75985043878053C4F853C4DF43C4E4
:021C1C0008229C
:071D41003098FDAF99C29834
:011D48002278
:081D4900C2998F993099FD2227
:101C59009000C21207C143B10453B2FB53B3BF533F
:0C1C6900B4BF75F85275C4F843C40822DB
:071D510030F8FDAF9AC2F863
:011D58002268
:081D5900C2F98F9A30F9FD2256
:101634009000A51207C1538EF74389019000A9E0D9
:101644007002A3E070030216FD7B407A42790F78A2
:10165400009000A5E0FCA3E0FDA3E0FEA3E0FF12E0
:1016640006FDA804A905AA06AB079000ABE0FEA3FB
:10167400E0FFE4FCFD120672E47B0CFAF9F81206B2
:10168400FDC374FF9FFF74FF9EFEE49DFDE49CFC7C
:10169400EFE48F8A7B407A42790FF89000A5E0FC52
:1016A400A3E0FDA3E0FEA3E0FF1206FDA804A90544
:1016B400AA06AB079000ABE0FEA3E0FFE4FCFD123A
:1016C4000672E47B0CFAF9F81206FDC374FF9FFF5F
:1016D40074FF9EFEE49DFDE49CFC78081207AE8F27
:1016E4008CD28C308DFDC28D9000AAE024FFF09046
:0C16F40000A9E034FFF0021640C28C2276
:101700009000AD1207C1538EEF4389109000B1E0F5
:101710007002A3E070030217C77B407A42790F780A
:10172000009000ADE0FCA3E0FDA3E0FEA3E0FF120B
:1017300006FDC004A905AA06AB079000B3E0FEA30E
:10174000E0FF7C007D0C120607E4FCFDD0001206D1
:1017500072C3E49FFFE49EFE74019DFDE49CFCEFD8
:10176000E48F8B7B407A42790FF89000ADE0FCA3C8
:10177000E0FDA3E0FEA3E0FF1206FDC004A905AA58
:1017800006AB079000B3E0FEA3E0FF7C007D0C12E7
:101790000607E4FCFDD000120672C3E49FFFE49E3E
:1017A000FE74019DFDE49CFC78081207AE8F8DD27B
:1017B0008E308FFDC28F9000B2E024FFF09000B118
:0A17C000E034FFF002170CC28E2285
:10104D0090008E1207C1E4F591900092E0FEA3E0AE
:10105D008EF012084410860001108B0004109300CE
:10106D0010109B002010A3004010AB008010B301A6
:10107D000010BB0200000010C153C98F803653C948
:10108D008F43C910802E53C98F43C920802653C961
:10109D008F43C930801E53C98F43C940801653C931
:1010AD008F43C950800E53C98F43C960800653C901
:1010BD008F43C970C2C843C98043C904900094E0EE
:1010CD007002A3E0700302119A7B407A42790F7887
:1010DD000090008EE0FCA3E0FDA3E0FEA3E0FF1274
:1010ED0006FD900096E0F8A3E0F9A3E0FAA3E0FB7B
:1010FD00120672C006C007900092E0FEA3E0FFFB4F
:10110D00AA06E4F9F8D007D0061206FDC3E49FFF46
:10111D00E49EFE74019DFDE49CFCEFE48FCC7B40CE
:10112D007A42790FF890008EE0FCA3E0FDA3E0FE7B
:10113D00A3E0FF1206FD900096E0F8A3E0F9A3E00E
:10114D00FAA3E0FB120672C006C007900092E0FE03
:10115D00A3E0FFFBAA06E4F9F8D007D0061206FDBE
:10116D00C3E49FFFE49EFE74019DFDE49CFC7808A2
:10117D001207AE8FCDD2CA30CFFDC2CF900095E011
:10118D0024FFF0900094E034FFF00210C9C2CA228F
:1012E40090009A1207C1E4F59190009EE024FE60FC
:1012F4002124FE602524FC602924F8602D24F0605C
:101304003124E0603524C06039247F703B53C4F835
:10131400803653C4F843C401802E53C4F843C40236
:10132400802653C4F843C403801E53C4F843C40442
:10133400801653C4F843C405800E53C4F843C4064E
:10134400800653C4F843C40790009FE07002A3E0F2
:10135400700302141753C4EF7B407A42790F78006C
:1013640090009AE0FCA3E0FDA3E0FEA3E0FF1206D8
:10137400FD9000A1E0F8A3E0F9A3E0FAA3E0FB12DA
:101384000672C00790009EE0FFFBE4FAF9F8D0076C
:101394001206FDC3E49FFFE49EFE74019DFDE49CE0
:1013A400FCEFE48FC57B407A42790FF890009AE015
:1013B400FCA3E0FDA3E0FEA3E0FF1206FD9000A164
:1013C400E0F8A3E0F9A3E0FAA3E0FB120672C00779
:1013D40090009EE0FFFBE4FAF9F8D0071206FDC383
:1013E400E49FFFE49EFE74019DFDE49CFC780812DA
:1013F40007AE8FC643C408E5C444EF64EF60F853F6
:10140400C4EF9000A0E024FFF090009FE034FFF0D0
:0714140002134C53C4F72240
:101C7500EF14600D14600D14600E2403700DD2A9CD
:0C1C850022D2AB22439B8022439C02220F
:100EC8009000361207C190003AE01460581470037D
:100ED800020FC02402600302104C53B1BF43B2405A
:100EE80043B18053B27F759850438920438780432C
:100EF8008E1053C4DFE47B10FAF9F8900036E0FC5A
:100F0800A3E0FDA3E0FEA3E0FF1206FD90003BE096
:100F1800F8A3E0F9A3E0FAA3E0FB1206FDEFF4045E
:100F2800F58DD28E2253B1BF43B24043B18053B244
:100F38007F75985043878053C4F843C420E47B10DE
:100F4800FAF9F8900036E0FCA3E0FDA3E0FEA3E088
:100F5800FF1206FD90003BE0F8A3E0F9A3E0FAA336
:100F6800E0FB1206FDC3E49FFFE49EFE74019DFDB5
:100F7800E49CFC78081207AE8FC6E47B10FAF9F8F7
:100F8800900036E0FCA3E0FDA3E0FEA3E0FF12061C
:100F9800FD90003BE0F8A3E0F9A3E0FAA3E0FB1220
:100FA80006FDC3E49FFFE49EFE74019DFDE49CFCE6
:100FB800EFE48FC543C4082253B3BF43B44043B1E1
:100FC8000453B2FB75F85075C480E47B10FAF9F845
:100FD800900036E0FCA3E0FDA3E0FEA3E0FF1206CC
:100FE800FD90003BE0F8A3E0F9A3E0FAA3E0FB12D0
:100FF80006FDC3E49FFFE49EFE74019DFDE49CFC96
:1010080078081207AE8FC6E47B10FAF9F89000361C
:10101800E0FCA3E0FDA3E0FEA3E0FF1206FD9000C4
:101028003BE0F8A3E0F9A3E0FAA3E0FB1206FDC356
:10103800E49FFFE49EFE74019DFDE49CFCEFE48FB9
:05104800C543C40822AD
:101CE200EF14600C0470103098FDAE99C298800712
:091CF20030F8FDAE9AC2F8AF060D
:011CFB0022C6
:101CC700EF14600D047013C2998D9920990C80FB55
:0B1CD70022C2F9AF058F9A30F9FD2200
:030000000217CA1A
:1017CA00787FE4F6D8FD9000007FFF7E03E4F0A363
:0A17DA00DFFCDEFA75812202181F01
:10005E00EC4D6011E8497017ED33EC3304600DE49C
:10006E00FCFFFEFD22E933E8330470F80202F012C1
:10007E0002BB58046009E4CC2481500628500902C2
:10008E0002FA2840030202F7C0E0EB4A7044B9803E
:10009E0006D0E0FB0202E6EF4E701CBD8008EBFFBF
:1000AE00EAFEE9FD80EBE98DF0A4FEE5F0020147E2
:1000BE00E9CDF9EAFEEBFFEF89F0A4FCE5F0CE897D
:1000CE00F0A42EFFE435F0CD89F0A42DFEE435F03A
:1000DE008067EF4E7005BD80D780C3EF8BF0A4AC68
:1000EE00F0EE8BF0A42CFCE435F0F8EF8AF0A42CA3
:1000FE00E5F038FCE433CB8DF0A42CFCE5F03BF8B6
:10010E00EE8AF0A42CFCE5F038F8E433CF89F0A4A5
:10011E002CFCE5F038CF3400CE89F0A42FFFE5F0AB
:10012E003EFEE433C98DF0A42EFEE5F039CD8AF003
:10013E00A42FFFE5F03EFEE43DFD33D0E0FB50077B
:10014E000BBB000F0202FAEC2CFCEF33FFEE33FE7A
:06015E00ED33FD0202D2A8
:100164000202FAEC5D046005E8590470030202F02F
:100174001202BB580460F6EC4860F2EC7004FDFE19
:10018400FF22C860DB2481C85009C398600250066E
:100194000202F79850CAF582E9294B4A7005AB82EE
:1001A4000202E675F0007C1A7880C3EF9BEE9AEDAC
:1001B40099400DC3EF9BFFEE9AFEED99FDE842F0E6
:1001C400DC23ACF0D0E0FFD0E0FED0E0FDAB822039
:1001D400E7101BEB60BAEC2CFCEF33FFEE33FEEDC3
:1001E40033FD0202D2E803F830E705C0F075F000F1
:1001F400EF2FFFEE33FEED33FD40B830E7C280AAA7
:1002040074F8CC6480CCC86480C8F58204604FC3A1
:10021400EB9FF5F0EA9E42F0E99D42F0E89C45F040
:10022400603C501DE5825FFFE582D313CB5BCBF4CA
:100234002B5582FB50280ABA002409B900200880F3
:100244001DE5825BFBE582D313CF5FCFF4C3132F8D
:100254005582FF50090EBE00050DBD00010CC3EB15
:100264009FF5F0EA9E42F0E99D42F0E89C45F0607B
:0902740007CC4820E701B3EC229D
:10027D0075F020800E75F010800575F0087D007EFC
:10028D00007F003392D530D50312078FEC33401029
:10029D00EF33FFEE33FEED33FDEC33FCD5F0ED2205
:0E02AD00E5F0247EA2D513CC92E7CDCEFF2241
:10087100E50D243BF582E43400F583E0050D22907B
:10088100003830100390003BE475F0011207FE02BE
:1008910005AF2009E97F2ED2098018EF540F24906B
:1008A100D43440D4FF300D0BEF24BFB41A005003F1
:1008B1002461FFE50E6002150E0511E511700205B8
:1008C1001030100E900038E475F0011207FEEF02AF
:1008D10005F50200037403D2108003E4C210F50D84
:1008E100900038120815E4F50EF510F511E50E60CB
:1008F100077F201208B480F5750FFFC20AC209C232
:100901000BC20CC20EC20FC211120880FF700D3053
:1009110010057F001208C5AF11AE1022B4255FC2C9
:10092100D5C20D120880FF24D0B40A00501A75F008
:100931000A780E30D50508B6FF0106C6A426F620B2
:10094100D5047002D20C80D924CFB41A00EF500420
:10095100C2E5D20D020BB7D20A80C6D20980C0D23D
:100961000B80BCD2D580BAD20E80B47F201208B4DD
:10097100200B077401B50E0040F1120871FF120837
:10098100B40208EED211D20F8095120871FB120841
:1009910071FA120871F94A4B700679B57A0C7BFF2E
:1009A100200B2EE50E602A7E008E827583001205D3
:1009B100C860060EEE650F70F0C2D5EBC0E0EAC06C
:1009C100E0E9C0E0EE120C18D0E0F9D0E0FAD0E096
:1009D100FB1205AFFF60AAEBC0E0EAC0E0E9C0E0AE
:1009E1001208B4D0E02401F9D0E03400FAD0E0FBE1
:1009F100E50F0460DCD50FD98087D20B80A2120BE2
:100A0100FA60F7E50F700104120305A90F600DE507
:100A11000F600914F50F120CA2EF60F3EA30E70240
:100A2100F404C3995079EAF4250F0430E701E40492
:100A3100F50F800D120BFA60C1EA050F250F1203A5
:100A410005EA900067F030E701E4250F04D50F04B3
:100A5100200E0114120C18E4C0E0120CA2900067E1
:100A6100E0601320E70714F012089C802204F0D004
:100A7100E014C0E07F0012089CE50F6007120893A4
:100A8100150F800B300E03120893D0E00208EED050
:100A9100E00480C4120BFA609EE50F041203059076
:100AA1000067EAF0E50F200E026001042404120C35
:010AB100182C
:100AB20074FF04C0E0120CA212089CE50F200E0283
:100AC2006003120893D0E0B50FE87F451208A690A4
:100AD2000067E07F2B30E7047F2DF404C0E01208AA
:100AE200B4D0E075F00A84C0F012089DD0E012087C
:100AF2009D0208EE791080027908C20FC2118008A7
:100B0200D2D5790A8004790AC2D5E50F047002F5BC
:100B12000FE4FAFDFEFF120871FC7B08200A131293
:100B22000871FD7B1030090A120871FE120871FF6C
:100B32007B20EC3382D592D55013C3E43009069F53
:100B4200FFE49EFEE4200A039DFDE49CFCE4CBF856
:100B5200C20AEC700CCFCECDCCE824F8F870F3804A
:100B620017C3EF33FFEE33FEED33FDEC33FCEB3313
:100B7200FB994002FB0FD8E9EB300A05F8D0E0C43C
:100B820048B20AC0E00AEC4D4E4F78207B0070C29A
:100B9200EAB50F0040BCC0E0120C1AD0F0D0E02041
:100BA2000A04C4C0E0C4B20AC0F012089DD0F0D555
:100BB200F0EB0208EE12081E098B530AF658095C84
:100BC2004C0958420AFA4F0B02440B02490971437D
:100BD2000B08550A35460A954509FF470CD55009B9
:100BE200602D09642E09872B0968230985200CBE14
:100BF2002A0920480000097FE50FB4FF03750F069C
:100C0200120871FC120871FD120871FE120871FFC0
:100C1200900060020342790AA2D5200C14300E091A
:100C2200B910020404B9080104A2D5200F02500130
:100C320004200B68920BB50E005034C0E07F2030C8
:100C42000C197F30A20B720F720E500F120C71C270
:100C52000BC20FC20EC2117F30800F300E03E9C0EB
:100C6200E01208B4300E03D0E0F9D0E0B50ECC307B
:100C72000E177F30B9100C1208B47F58300D077F61
:100C8200788003B908031208B4300B057F2D0208DF
:100C9200B47F202011F87F2B200FF322920B80CFFC
:100CA2007F00B40700500B2460F582E43400F58322
:100CB200E0FF22286E756C6C2900D20A120871308E
:100CC2000AF8C20A780E30D50108F60209202D5022
:100CD2004349581208712403B405004001E4900C02
:100CE200D0931208A5743A1208A5D20C750E04020C
:020CF2000AF600
:1002BB00E9D2E7C933E833F892D5EDD2E7CD33EC89
:0702CB0033FC5002B2D52202
:1002D200EC30E7100FBF000C0EBE00080DBD00048D
:1002E2000BEB6014A2D5EB13FCED92E7FD2274FF39
:1002F200FCFDFEFF22E480F8A2D574FF13FC7D8092
:03030200E480EFA5
:10030500F920E73624F950037907E4F42402FBE5E4
:1003150082158270021583DBF6E024FB501BE96031
:1003250014E4F0E582158270021583E004F0B40A46
:0D03350008E4F0D9EE7401F00A22C2D522CE
:10034200ED33EC3392D5FA602AB4FF33EDC2E77B8A
:10035200FF60067A037967E4227A03797020D50474
:100362007A03796B224E614E002B494E46002D498D
:100372004E4600E47A08F0A3DAFC7B00740722C040
:1003820083C082ECC0E0EDC0E0EEC0E0EFC0E0EA86
:1003920075F010A4CAABF075F04DA42BFBE435F058
:1003A200FCEA2410FAEB34C5FBEC34D9FCEDC2E7CD
:1003B200FF75F056A4F42411C5F0F434C58FF0A4EF
:1003C2002AE5F03BE43CF020E71412056FD0E0FF91
:1003D200D0E0FED0E0FDD0E0FC1201678014F4040E
:1003E20012056FD0E0FFD0E0FED0E0FDD0E0FC12BD
:1003F200005ED082D083E0FAEDD2E7CD33EC332435
:1004020082FBE4C3CF33CFCE33CECD33CD33DBF358
:100412007B0775F00A846004F0A31B0AE5F0F0A3E1
:100422008FF0740AA4FFACF08EF0740AA42CFEAC18
:10043200F050010C8DF0740AA42CFDE435F0F0A309
:05044200DBDE7407225F
:100447000202F0E86480F8E933E83360110460F0F1
:10045700ED33EC337009E8FCE9FDEAFEEBFF22041B
:1004670060DED3EB9FEA9EE99DE8C2E78CF0C2F716
:1004770095F0400CE8CCF8E9CDF9EACEFAEBCFFBE2
:100487001202BB85D0F05804700320D5B3E804707E
:10049700075002B2D50202FA92D5EC0460F7E4CC19
:1004A700C0E0C398F8603B94186008400DD0E0FBAB
:1004B7000202D2E4FBFAC9FC8028E830E406E4C96A
:1004C700FBE4CAFCE830E305E4C9CACBFCE85407FF
:1004D7006010F8C3E913F9EA13FAEB13FBEC13FC0A
:1004E700D8F130F52FC3E49CFCEF9BFFEE9AFEEDAD
:1004F70099FDD0E0FBEF4E4D4C701222DB03020258
:10050700F7EC2CFCEF33FFEE33FEED33FDED30E778
:10051700EB0202D2EF2BFFEE3AFEED39FDD0E0FB06
:1005270050130BBB00030202FAED13FDEE13FEEFAF
:0805370013FFEC13FC0202D2D9
:10053F003F8000004120000042C80000447A0000C4
:10054F00461C400047C35000497424004B18968046
:10055F004CBEBC205A0E1BCA6753C21C749DC5AE3D
:10056F00FB60065407601C232312059DEB54386073
:10057F000912058912059812005EECF8EDF9EEFAF2
:10058F00EFCB22EB12059880F1543803241C900511
:10059F003FFE93FC0EEE93FD0EEE930ECE93FF22D5
:1017E400021CACE493A3F8E493A34003F68001F253
:1017F40008DFF48029E493A3F85407240CC8C33306
:10180400C4540F4420C8834004F456800146F6DFD4
:10181400E4800B0102040810204080901B30E47E19
:10182400019360BCA3FF543F30E509541FFEE493C9
:10183400A360010ECF54C025E060A840B8E493A390
:10184400FAE493A3F8E493A3C8C582C8CAC583CABB
:10185400F0A3C8C582C8CAC583CADFE9DEE780BE73
:011B71000073
:1005AF00BB010689828A83E0225002E722BBFE024A
:0905BF00E32289828A83E493227D
:1005C800BB010CE58229F582E5833AF583E02250E8
:1005D80006E92582F8E622BBFE06E92582F8E22232
:0D05E800E58229F582E5833AF583E493224C
:1005F500BB010689828A83F0225002F722BBFE01E5
:02060500F322DE
:10060700BC000BBE0029EF8DF084FFADF022E4CCD7
:10061700F875F008EF2FFFEE33FEEC33FCEE9DECA0
:10062700984005FCEE9DFE0FD5F0E9E4CEFD22EDE6
:10063700F8F5F0EE8420D21CFEADF075F008EF2F30
:10064700FFED33FD4007985006D5F0F222C398FD21
:050657000FD5F0EA22BE
:10065C00A3F8E0C5F025F0F0E58215827002158351
:06066C00E0C838F0E822AE
:10067200E88FF0A4CC8BF0A42CFCE98EF0A42CFC27
:100682008AF0EDA42CFCEA8EF0A4CDA8F08BF0A4A5
:100692002DCC3825F0FDE98FF0A42CCD35F0FCEB04
:1006A2008EF0A4FEA9F0EB8FF0A4CFC5F02ECD39C9
:0F06B200FEE43CFCEAA42DCE35F0FDE43CFC2236
:1006C10075F008758200EF2FFFEE33FECD33CDCCF0
:1006D10033CCC58233C5829BED9AEC99E582984073
:1006E1000CF582EE9BFEED9AFDEC99FC0FD5F0D650
:1006F100E4CEFBE4CDFAE4CCF9A88222B800C1B97A
:100701000059BA002DEC8BF084CFCECDFCE5F0CBB7
:10071100F97818EF2FFFEE33FEED33FDEC33FCEBF0
:1007210033FB10D703994004EB99FB0FD8E5E4F9AB
:10073100FA227818EF2FFFEE33FEED33FDEC33FC98
:10074100C933C910D7059BE99A4007EC9BFCE99A8C
:10075100F90FD8E0E4C9FAE4CCFB2275F010EF2FD1
:10076100FFEE33FEED33FDCC33CCC833C810D707D1
:100771009BEC9AE899400AED9BFDEC9AFCE899F80C
:0E0781000FD5F0DAE4CDFBE4CCFAE4C8F9229F
:0E078F00C3E49FFFE49EFEE49DFDE49CFC227B
:10079D00EB9FF5F0EA9E42F0E99D42F0E89C45F0B2
:0107AD002229
:1007AE00E8600FECC313FCED13FDEE13FEEF13FF29
:0307BE00D8F1224D
:0C07C100ECF0A3EDF0A3EEF0A3EFF022AB
:1007CD00A8828583F0D083D0821207E41207E41249
:1007DD0007E41207E4E473E493A3C583C5F0C5836E
:1007ED00C8C582C8F0A3C583C5F0C583C8C582C876
:0107FD0022D9
:1007FE00F8E0FBA3A3E0F925F0F0E5821582700284
:07080E001583E0FA38F02227
:09081500EBF0A3EAF0A3E9F022E4
:10081E00D083D082F8E4937012740193700DA3A369
:10082E0093F8740193F5828883E47374029368607D
:06083E00EFA3A3A380DF7D
:10084400D083D082F8E4937012740193700DA3A343
:1008540093F8740193F5828883E473740293B5F07A
:0D086400067403936860E9A3A3A3A380D8E2
:00000001FF
