:101B6A000D0A50574D3A3078257820202C307825A8
:101B7A00780D0A0D0A000D0A20424720566F6C7430
:101B8A00616765203D2025650D0A000D0A2056442F
:101B9A004420766F6C74616765203D2025650D0AC7
:101BAA0000445554593A2532642C414443203A2082
:101BBA00253464202C4144432077697468696E2077
:101BCA0072616E67653A253464202856524546206C
:0A1BDA003A2025652076290D0A0047
:101CA000410073004100790041008D004100800136
:101CB00042007B00004400810000000041007D00E4
:101CC00041007E0241006801420069000042006B51
:101CD000000042006D000042006F000042007100F1
:011CE0000003
:0B000E009000B5EBF0A3EAF0A3E9F0CE
:10001900E4A3F0A3F09000B5E0FBA3E0FAA3E0F9B4
:10002900A3E0FEA3E0F5828E831205FF6020900015
:10003900B5E0A3E0A3E0A3E475F00112069385F00F
:0E00490082F5831205FFFDE4FF121E3780C70B
:010057002286
:101E6C00900068E06005D285E4F022C2859000689D
:031E7C007401F0FE
:011E7F002240
:071ED10053B1DF43B22022F0
:0F1E9300AD07AC06ECF5D3EDF5DBD2DED2DF22E6
:0F1EA200AD07AC06ECF5D2EDF5DAD2DED2DF22D9
:1019BF00900036EEF0A3EFF043DE0243DE0153DF7B
:1019CF003F43DF0453DFFC900036E0FEA3E0FFFB54
:1019DF00AA06E4F9F87F607EE37D16FC120734EF68
:1019EF0024FFFFEE34FFFEED34FFFDEC34FFFC78F7
:1019FF00081207E58FD1900036E0FEA3E0FFFBAAA7
:101A0F0006E4F9F87F607EE37D16FC120734EF24BD
:101A1F00FFFFEE34FFFEED34FFFDEC34FFFCEFE48F
:101A2F008FD97BFF7A1B796A90003BE5D1F0A3E554
:101A3F00D9F01209137F647E00121EA2E4FF121E5A
:021A4F009322E0
:101CE20090008DE0FFC374649FFFE49400FE121E17
:101CF200A2900080E0601590008DE004F0B4641EB4
:101D0200E4900080F090008D7464F02290008DE0E9
:0F1D120014F0700A90008004F0E490008DF0222D
:1012F800A2AF9212C2AF75C7AA75C755439F01A284
:101308001292AF75AF0475A60DE4F5A7A2AF9212BD
:10131800C2AF75C7AA75C75543A401A21292AFAD53
:10132800AEED54F0900037F0ED540FFD75A60CE4C7
:10133800F5A7A2AF9212C2AF75C7AA75C75543A445
:1013480001A21292AFAFAEEF75F010A47C002DFD94
:10135800EC35F0FCE412037A9000751207F8E4FF0C
:10136800FE7D407C40900075E0F8A3E0F9A3E0FA28
:10137800A3E0FB120156E4FBFA7980784012025F81
:101388009000891207F8A2AF9212C2AF75C7AA756A
:10139800C755539FFEA21292AF43E80853E8F8439B
:1013A800E10143E13043E20E43A210C2EFD2EE3036
:1013B800EFFD900074E5C3F090007AE5C2F0AFC38A
:1013C800EF75F010A4ADC27C002DFDEC35F0FCE407
:1013D80012037AAB07AA06A905A804E4FFFE7D80DC
:1013E8007C4512025F900089E0F8A3E0F9A3E0FAD7
:1013F800A3E0FB1201569000851207F87BFF7A1BC9
:101408007980900089E0FCA3E0FDA3E0FEA3E0FF63
:1014180090003B1207F81209137BFF7A1B7995900D
:101428000085E0FCA3E0FDA3E0FEA3E0FF90003B05
:061438001207F81209136F
:01143E00228B
:061ED80090007DE0FF22F6
:061EDE0090007DEFF022F0
:08157600900006EEF0A3EFF077
:10157E00121ED8EF7003021689E4FF121EDE9000D1
:10158E007EE0146079046003021689900081E0F811
:10159E00A3E0F9A3E0FAA3E0FB900006E0FEA3E0CF
:1015AE00FFE4FCFDEB2FFFEA3EFEED39FDEC38FCCF
:1015BE009000811207F8900069E475F0011206930D
:1015CE00AFF0FEE4FCFD7B0FFAF9F8D31207D4401E
:1015DE0003021689E4900069F0A3F0900081E0FC0C
:1015EE00A3E0FDA3E0FEA3E0FF78041207E5900060
:1015FE007BEEF0A3EFF090007E7401F0807D900002
:10160E0081E0FCA3E0FDA3E0FEA3E0FFC006C0075F
:10161E0090007BE0FEA3E0FFFBAA06E4D007D00615
:10162E00C3EF9BFFEE9AFEED9400FDEC9400FC9050
:10163E0000811207F8900081E0F8A3E0F9A3E0FA28
:10164E00A3E0FB900006E0FEA3E0FFE4FCFDEB2F21
:10165E00FFEA3EFEED39FDEC38FC9000811207F8F2
:10166E00900081E0FCA3E0FDA3E0FEA3E0FF780480
:10167E001207E590007BEEF0A3EFF090007BE0FE0A
:03168E00A3E0FFD7
:011691002236
:101E0100E490007EF090008112080400000000E4DC
:0B1E110090007BF0A3F0FF121EDE2209
:100D2B00E4900000F0A3F0900002F0A3F090000418
:100D3B00F0A3F0AFC3EF75F010A4ADC27C002DFF94
:100D4B00EC35F0A2E713FEEF1325E0FFEE33FE12B6
:100D5B001576900000EEF0A3EFF0900000E0FCA3FE
:100D6B00E0FDE412037AE4FBFAF9F81202FC400608
:100D7B007E007F008008900000E0FEA3E0FF900063
:100D8B0000EEF0A3EFF0900000E0FEA3E0FFE4FC28
:100D9B00FDFB7A10F9F8D31207D450067E107F00B2
:100DAB008008900000E0FEA3E0FF900000EEF0A3AF
:100DBB00EFF0900000E0FFA3E0900004CFF0A3EF72
:100DCB00F0900085E0F8A3E0F9A3E0FAA3E0FB7F45
:100DDB00D87E757DA27C4A12025FC004C005C00696
:100DEB00C007900004E0FCA3E0FDE412037AA80422
:100DFB00A905AA06AB07D007D006D005D00412026E
:100E0B00FC6002501B900085E0F8A3E0F9A3E0FA28
:100E1B00A3E0FB7FD87E757DA27C4A12025F800C1B
:100E2B00900004E0FCA3E0FDE412037A1203B390FC
:100E3B000004EEF0A3EFF07F007EF07D7F7C459009
:100E4B000085E0F8A3E0F9A3E0FAA3E0FB1201565A
:100E5B00900085E0F8A3E0F9A3E0FAA3E0FB12020F
:100E6B005FC004C005C006C007900004E0FCA3E00F
:100E7B00FDE412037AA804A905AA06AB07D007D094
:100E8B0006D005D0041202FC402C7F007EF07D7F43
:100E9B007C45900085E0F8A3E0F9A3E0FAA3E0FB22
:100EAB00120156900085E0F8A3E0F9A3E0FAA3E065
:100EBB00FB12025F800C900004E0FCA3E0FDE41247
:100ECB00037A1203B3900004EEF0A3EFF07F007EE1
:100EDB00F07D7F7C45900085E0F8A3E0F9A3E0FA74
:100EEB00A3E0FB120156900085E0F8A3E0F9A3E024
:100EFB00FAA3E0FB12025FC004C005C006C0079056
:100F0B000085E0F8A3E0F9A3E0FAA3E0FB7FD87E2D
:100F1B00757DA27C4A12025FA804A905AA06AB073D
:100F2B00D007D006D005D004120061C004C005C0A4
:100F3B0006C007900085E0F8A3E0F9A3E0FAA3E070
:100F4B00FB7FD87E757DA27C4A12025FC004C00570
:100F5B00C006C007900004E0FCA3E0FDE412037A96
:100F6B00D003D002D001D000120061E4FBFA79C8A3
:100F7B007842120156D003D002D001D00012025F8A
:100F8B001203B3900002EEF0A3EFF0900002E0FE2C
:100F9B00A3E0FF121E93900002E0FEA3E0FFC374D8
:100FAB00649FFFE49EFE121EA2900002E0FFA3E0EE
:100FBB0090003BCFF0A3EFF0900000E0FFA3E09098
:100FCB00003DCFF0A3EFF0900004E0FFA3E0900012
:100FDB003FCFF0A3EFF0900000E0FCA3E0FDE412A4
:100FEB00037A900085E0F8A3E0F9A3E0FAA3E0FB15
:100FFB001201567B007AF0797F784512025F9000E0
:10100B00411207F87BFF7A1B79AB120913D2EE90D2
:07101B000000E0FEA3E0FF6E
:0110220022AB
:03005B00021D8EF5
:101D8E00C0E0C083C082C0D075D000C0077F0112F2
:0F1D9E001EDEC2EFD007D0D0D082D083D0E0328B
:10169200900036EFF01212F8900036E0B4080040E5
:1016A2000302177A9016ADF82828730216C502169F
:1016B200DA0216F202170902172002173702174E32
:1016C20002176553E8F043B38053B47FE4F5F64361
:1016D200F60143E10102177A53E8F043E80143AC13
:1016E2000153ADFEE4F5F643F60243E10102177A37
:1016F20053E8F043E80243B18053B27FE4F5F64386
:10170200F60443E101807153E8F043E80343B1403A
:1017120053B2BFE4F5F643F60843E101805A53E8B9
:10172200F043E80443B12053B2DFE4F5F643F61088
:1017320043E101804353E8F043E80543B11053B25B
:10174200EFE4F5F643F62043E101802C53E8F04341
:10175200E80643B10853B2F7E4F5F643F64043E135
:1017620001801553E8F043E80743B30253B4FDE4A4
:10177200F5F643F68043E10143E13043E20E53A222
:0D178200EFC2EFD2EED2AED2AF121E0122A6
:101ADF00900071E475F001120693FEC3E5F09412C5
:101AEF00EE94004007E4900071F0A3F090006FE4D3
:101AFF0075F001120693AFF0FEE4FCFD7BF47A0162
:101B0F00F9F8D31207D4500AE490006FF0A3F01243
:101B1F001E6C90006DE475F001120693AFF0FEE4B9
:101B2F00FCFD7B14FAF9F8D31207D4500AE49000A5
:101B3F006DF0A3F0120D2B90006BE475F0011206FF
:101B4F0093AFF0FEE4FCFD7BE87A03F9F8D31207BC
:0A1B5F00D45007E490006BF0A3F0EF
:011B69002259
:03000B00021C577D
:101C5700C0E0C0F0C083C082C0D075D000C000C053
:101C670001C002C003C004C005C006C007900073CE
:101C7700E0F58C900079E0F58AC28D121ADFD00763
:101C8700D006D005D004D003D002D001D000D0D0E8
:091C9700D082D083D0F0D0E032FD
:101D2100E4900036F0A3F0F5915389F043890190D6
:101D3100007374F8F09000797430F0758CF8F58ABE
:061D4100D2A9D2AFD28C42
:011D47002279
:101DAD0090003A7401F0A31208040001C2007F00F4
:0C1DBD007E367D6E7C01121023D299222C
:101E8000121A51E4F5B1F5B2F5B3F5B4F5ACF5AD10
:031E9000D2AF22AC
:101E1C00121E80121DAD7F987E3A1219BF7F0512DB
:0B1E2C001692121ED1121D2180FE2212
:080003003099FDC2998F99228A
:101BE400A2AF9212C2AF75C7AA75C755439F01A28F
:101BF4001292AF75A630E4F5A775AF04A2AF9212A6
:101C0400C2AF75C7AA75C75543A401A21292AF8586
:101C1400AE1275A631F5A7A2AF9212C2AF75C7AACC
:101C240075C75543A401A21292AF85AE13A2AF9219
:101C340012C2AF75C7AA75C755539FFEA21292AFC1
:101C440075C7AA75C75585128475C7AA75C7558502
:021C54001385F6
:011C5600226B
:101A5100E58720E403021ADEA2AF9212C2AF75C776
:101A6100AA75C755439F01A21292AF75A638E4F536
:101A7100A775AF04A2AF9212C2AF75C7AA75C755B9
:101A810043A401A21292AF85AE0D75A639F5A7A2A6
:101A9100AF9212C2AF75C7AA75C75543A401A2126E
:101AA10092AF85AE0EA2AF9212C2AF75C7AA75C72B
:101AB10055539FFEA21292AF75C7AA75C755850DE2
:101AC1008475C7AA75C755850E85A2AF9212C2AF9C
:0D1AD10075C7AA75C755539FFEA21292AFAC
:011ADE0022E5
:101D48009000BA1207F853B1BF53B2BF53B17F53D3
:101D5800B27F759850438920438780438E1053C4BF
:041D6800DFD28E2216
:101D6C009000BE1207F853B1BF53B2BF53B17F53AB
:101D7C00B27F75985043878053C4F853C4DF43C473
:021D8C0008222B
:071EB1003098FDAF99C298C3
:011EB8002207
:081EB900C2998F993099FD22B6
:101DC9009000C21207F843B10453B2FB53B3BF5397
:0C1DD900B4BF75F85275C4F843C408226A
:071EC10030F8FDAF9AC2F8F2
:011EC80022F7
:081EC900C2F98F9A30F9FD22E5
:10178F009000A51207F8538EF74389019000A9E046
:10179F007002A3E070030218587B407A42790F78E9
:1017AF00009000A5E0FCA3E0FDA3E0FEA3E0FF1284
:1017BF000734A804A905AA06AB079000ABE0FEA367
:1017CF00E0FFE4FCFD1206A9E47B0CFAF9F812071E
:1017DF0034C374FF9FFF74FF9EFEE49DFDE49CFCE9
:1017EF00EFE48F8A7B407A42790FF89000A5E0FCF6
:1017FF00A3E0FDA3E0FEA3E0FF120734A804A905B0
:10180F00AA06AB079000ABE0FEA3E0FFE4FCFD12DD
:10181F0006A9E47B0CFAF9F8120734C374FF9FFF93
:10182F0074FF9EFEE49DFDE49CFC78081207E58F93
:10183F008CD28C308DFDC28D9000AAE024FFF090E9
:0C184F0000A9E034FFF002179BC28C22BD
:10185B009000AD1207F8538EEF4389109000B1E062
:10186B007002A3E070030219227B407A42790F7851
:10187B00009000ADE0FCA3E0FDA3E0FEA3E0FF12AF
:10188B000734C004A905AA06AB079000B3E0FEA37A
:10189B00E0FF7C007D0C12063EE4FCFDD00012063E
:1018AB00A9C3E49FFFE49EFE74019DFDE49CFCEF45
:1018BB00E48F8B7B407A42790FF89000ADE0FCA36C
:1018CB00E0FDA3E0FEA3E0FF120734C004A905AAC4
:1018DB0006AB079000B3E0FEA3E0FF7C007D0C128B
:1018EB00063EE4FCFDD0001206A9C3E49FFFE49E74
:1018FB00FE74019DFDE49CFC78081207E58F8DD2E8
:10190B008E308FFDC28F9000B2E024FFF09000B1BB
:0A191B00E034FFF0021867C28E22CC
:1011A80090008E1207F8E4F591900092E0FEA3E01B
:1011B8008EF012087B11E1000111E6000411EE0027
:1011C8001011F6002011FE004012060080120E01D8
:1011D80000121602000000121C53C98F803653C932
:1011E8008F43C910802E53C98F43C920802653C905
:1011F8008F43C930801E53C98F43C940801653C9D5
:101208008F43C950800E53C98F43C960800653C9A4
:101218008F43C970C2C843C98043C904900094E091
:101228007002A3E070030212F57B407A42790F78CE
:101238000090008EE0FCA3E0FDA3E0FEA3E0FF1217
:101248000734900096E0F8A3E0F9A3E0FAA3E0FBE6
:101258001206A9C006C007900092E0FEA3E0FFFBBB
:10126800AA06E4F9F8D007D006120734C3E49FFFB2
:10127800E49EFE74019DFDE49CFCEFE48FCC7B4072
:101288007A42790FF890008EE0FCA3E0FDA3E0FE1F
:10129800A3E0FF120734900096E0F8A3E0F9A3E07A
:1012A800FAA3E0FB1206A9C006C007900092E0FE70
:1012B800A3E0FFFBAA06E4F9F8D007D0061207342A
:1012C800C3E49FFFE49EFE74019DFDE49CFC780846
:1012D8001207E58FCDD2CA30CFFDC2CF900095E07E
:1012E80024FFF0900094E034FFF0021224C2CA22D6
:10143F0090009A1207F8E4F59190009EE024FE6068
:10144F002124FE602524FC602924F8602D24F060FF
:10145F003124E0603524C06039247F703B53C4F8D9
:10146F00803653C4F843C401802E53C4F843C402DA
:10147F00802653C4F843C403801E53C4F843C404E6
:10148F00801653C4F843C405800E53C4F843C406F2
:10149F00800653C4F843C40790009FE07002A3E096
:1014AF00700302157253C4EF7B407A42790F7800B4
:1014BF0090009AE0FCA3E0FDA3E0FEA3E0FF12077B
:1014CF00349000A1E0F8A3E0F9A3E0FAA3E0FB1247
:1014DF0006A9C00790009EE0FFFBE4FAF9F8D007D9
:1014EF00120734C3E49FFFE49EFE74019DFDE49C4C
:1014FF00FCEFE48FC57B407A42790FF890009AE0B9
:10150F00FCA3E0FDA3E0FEA3E0FF1207349000A1CF
:10151F00E0F8A3E0F9A3E0FAA3E0FB1206A9C007E5
:10152F0090009EE0FFFBE4FAF9F8D007120734C3EE
:10153F00E49FFFE49EFE74019DFDE49CFC7808127D
:10154F0007E58FC643C408E5C444EF64EF60F85362
:10155F00C4EF9000A0E024FFF090009FE034FFF074
:07156F000214A753C4F72288
:101DE500EF14600D14600D14600E2403700DD2A95C
:0C1DF50022D2AB22439B8022439C02229E
:101023009000361207F890003AE0146058147003E9
:1010330002111B240260030211A753B1BF43B24044
:1010430043B18053B27F75985043892043878043CF
:101053008E1053C4DFE47B10FAF9F8900036E0FCFD
:10106300A3E0FDA3E0FEA3E0FF12073490003BE002
:10107300F8A3E0F9A3E0FAA3E0FB120734EFF404CA
:10108300F58DD28E2253B1BF43B24043B18053B2E8
:101093007F75985043878053C4F843C420E47B1082
:1010A300FAF9F8900036E0FCA3E0FDA3E0FEA3E02C
:1010B300FF12073490003BE0F8A3E0F9A3E0FAA3A2
:1010C300E0FB120734C3E49FFFE49EFE74019DFD21
:1010D300E49CFC78081207E58FC6E47B10FAF9F864
:1010E300900036E0FCA3E0FDA3E0FEA3E0FF1207BF
:1010F3003490003BE0F8A3E0F9A3E0FAA3E0FB128D
:101103000734C3E49FFFE49EFE74019DFDE49CFC51
:10111300EFE48FC543C4082253B3BF43B44043B184
:101123000453B2FB75F85075C480E47B10FAF9F8E8
:10113300900036E0FCA3E0FDA3E0FEA3E0FF12076E
:101143003490003BE0F8A3E0F9A3E0FAA3E0FB123C
:101153000734C3E49FFFE49EFE74019DFDE49CFC01
:1011630078081207E58FC6E47B10FAF9F890003689
:10117300E0FCA3E0FDA3E0FEA3E0FF120734900030
:101183003BE0F8A3E0F9A3E0FAA3E0FB120734C3C2
:10119300E49FFFE49EFE74019DFDE49CFCEFE48F5D
:0511A300C543C4082251
:101E5200EF14600C0470103098FDAE99C2988007A0
:091E620030F8FDAE9AC2F8AF069B
:011E6B002254
:101E3700EF14600D047013C2998D9920990C80FBE3
:0B1E470022C2F9AF058F9A30F9FD228E
:03000000021925BD
:10192500787FE4F6D8FD9000007FFF7E03E4F0A306
:0A193500DFFCDEFA75812202197A48
:10005E0002041FE86480F8E933E83360110460F0AD
:10006E00ED33EC337009E8FCE9FDEAFEEBFF220408
:10007E0060DED3EB9FEA9EE99DE8C2E78CF0C2F703
:10008E0095F0400CE8CCF8E9CDF9EACEFAEBCFFBCF
:10009E001203EA85D0F05804700320D5B3E804703B
:1000AE00075002B2D502042992D5EC0460F7E4CCD5
:1000BE00C0E0C398F8603B94186008400DD0E0FB98
:1000CE00020401E4FBFAC9FC8028E830E406E4C926
:1000DE00FBE4CAFCE830E305E4C9CACBFCE85407EC
:1000EE006010F8C3E913F9EA13FAEB13FBEC13FCF7
:1000FE00D8F130F52FC3E49CFCEF9BFFEE9AFEED9A
:10010E0099FDD0E0FBEF4E4D4C701222DB03020442
:10011E0026EC2CFCEF33FFEE33FEED33FDED30E736
:10012E00EB020401EF2BFFEE3AFEED39FDD0E0FBC2
:10013E0050130BBB0003020429ED13FDEE13FEEF6B
:08014E0013FFEC13FC02040195
:10015600EC4D6011E8497017ED33EC3304600DE4A3
:10016600FCFFFEFD22E933E8330470F802041F1297
:1001760003EA58046009E4CC248150062850090299
:100186000429284003020426C0E0EB4A7044B980E3
:1001960006D0E0FB020415EF4E701CBD8008EBFF95
:1001A600EAFEE9FD80EBE98DF0A4FEE5F002023FF0
:1001B600E9CDF9EAFEEBFFEF89F0A4FCE5F0CE8984
:1001C600F0A42EFFE435F0CD89F0A42DFEE435F041
:1001D6008067EF4E7005BD80D780C3EF8BF0A4AC6F
:1001E600F0EE8BF0A42CFCE435F0F8EF8AF0A42CAA
:1001F600E5F038FCE433CB8DF0A42CFCE5F03BF8BD
:10020600EE8AF0A42CFCE5F038F8E433CF89F0A4AC
:100216002CFCE5F038CF3400CE89F0A42FFFE5F0B2
:100226003EFEE433C98DF0A42EFEE5F039CD8AF00A
:10023600A42FFFE5F03EFEE43DFD33D0E0FB500782
:100246000BBB000F020429EC2CFCEF33FFEE33FE50
:06025600ED33FD0204017E
:10025C00020429EC5D046005E85904700302041FD4
:10026C001203EA580460F6EC4860F2EC7004FDFEF0
:10027C00FF22C860DB2481C85009C3986002500675
:10028C000204269850CAF582E9294B4A7005AB82C4
:10029C0002041575F0007C1A7880C3EF9BEE9AED82
:1002AC0099400DC3EF9BFFEE9AFEED99FDE842F0ED
:1002BC00DC23ACF0D0E0FFD0E0FED0E0FDAB822040
:1002CC00E7101BEB60BAEC2CFCEF33FFEE33FEEDCA
:1002DC0033FD020401E803F830E705C0F075F000C7
:1002EC00EF2FFFEE33FEED33FD40B830E7C280AAAE
:1002FC0074F8CC6480CCC86480C8F58204604FC3A9
:10030C00EB9FF5F0EA9E42F0E99D42F0E89C45F047
:10031C00603C501DE5825FFFE582D313CB5BCBF4D1
:10032C002B5582FB50280ABA002409B900200880FA
:10033C001DE5825BFBE582D313CF5FCFF4C3132F94
:10034C005582FF50090EBE00050DBD00010CC3EB1C
:10035C009FF5F0EA9E42F0E99D42F0E89C45F06082
:09036C0007CC4820E701B3EC22A4
:1003750075F020800E75F010800575F0087D007E03
:10038500007F003392D530D5031207C6EC334010F9
:10039500EF33FFEE33FEED33FDEC33FCD5F0ED220C
:0E03A500E5F0247EA2D513CC92E7CDCEFF2248
:1003B300EDD2E7CD33EC3392D524814006E4FFFE42
:1003C300FDFC22FCE4CFCECDCC24E0501174FF80A1
:1003D300EDC3CC13CCCD13CDCE13CECF13CF04703E
:0703E300F030D5DE0207C671
:1008A800E50D243BF582E43400F583E0050D229044
:1008B800003830100390003BE475F001120835024F
:1008C80005E62009E97F2ED2098018EF540F2490FD
:1008D800D43440D4FF300D0BEF24BFB41A005003BA
:1008E8002461FFE50E6002150E0511E51170020581
:1008F8001030100E900038E475F001120835EF0240
:10090800062C0200037403D2108003E4C210F50D14
:1009180090003812084CE4F50EF510F511E50E605C
:10092800077F201208EB80F5750FFFC20AC209C2C3
:100938000BC20CC20EC20FC2111208B7FF700D30E5
:1009480010057F001208FCAF11AE1022B4255FC25B
:10095800D5C20D1208B7FF24D0B40A00501A75F09A
:100968000A780E30D50508B6FF0106C6A426F6207B
:10097800D5047002D20C80D924CFB41A00EF5004E9
:10098800C2E5D20D020BEED20A80C6D20980C0D2CF
:100998000B80BCD2D580BAD20E80B47F201208EB6F
:1009A800200B077401B50E0040F11208A8FF1208C9
:1009B800EB020925D211D20F80951208A8FB120864
:1009C800A8FA1208A8F94A4B700679EC7A0C7BFF52
:1009D800200B2EE50E602A7E008E8275830012059C
:1009E800FF60060EEE650F70F0C2D5EBC0E0EAC0FE
:1009F800E0E9C0E0EE120C4FD0E0F9D0E0FAD0E028
:100A0800FB1205E6FF60AAEBC0E0EAC0E0E9C0E03F
:100A18001208EBD0E02401F9D0E03400FAD0E0FB72
:100A2800E50F0460DCD50FD98087D20B80A2120CA9
:100A38003160F7E50F700104120434A90F600DE569
:100A48000F600914F50F120CD9EF60F3EA30E702D2
:100A5800F404C3995079EAF4250F0430E701E4045B
:100A6800F50F800D120C3160C1EA050F250F120435
:100A780034EA900067F030E701E4250F04D50F044D
:100A8800200E0114120C4FE4C0E0120CD99000673C
:100A9800E0601320E70714F01208D3802204F0D096
:100AA800E014C0E07F001208D3E50F60071208CAFF
:100AB800150F800B300E031208CAD0E0020925D0AA
:100AC800E00480C4120C31609EE50F0412043490D7
:100AD8000067EAF0E50F200E026001042404120CFE
:010AE8004FBE
:100AE90074FF04C0E0120CD91208D3E50F200E02DE
:100AF90060031208CAD0E0B50FE87F451208DD90FF
:100B09000067E07F2B30E7047F2DF404C0E0120872
:100B1900EBD0E075F00A84C0F01208D4D0E01208D6
:100B2900D4020925791080027908C20FC211800800
:100B3900D2D5790A8004790AC2D5E50F047002F585
:100B49000FE4FAFDFEFF1208A8FC7B08200A131225
:100B590008A8FD7B1030090A1208A8FE1208A8FF90
:100B69007B20EC3382D592D55013C3E43009069F1C
:100B7900FFE49EFEE4200A039DFDE49CFCE4CBF81F
:100B8900C20AEC700CCFCECDCCE824F8F870F38013
:100B990017C3EF33FFEE33FEED33FDEC33FCEB33DC
:100BA900FB994002FB0FD8E9EB300A05F8D0E0C405
:100BB90048B20AC0E00AEC4D4E4F78207B0070C263
:100BC900EAB50F0040BCC0E0120C51D0F0D0E020D3
:100BD9000A04C4C0E0C4B20AC0F01208D4D0F0D5E7
:100BE900F0EB02092512085509C2530B2D58099338
:100BF9004C098F420B314F0B39440B394909A84332
:100C09000B3F550A6C460ACC450A36470D0C50096C
:100C1900972D099B2E09BE2B099F2309BC200CF592
:100C29002A095748000009B6E50FB4FF03750F06F6
:100C39001208A8FC1208A8FD1208A8FE1208A8FFAD
:100C4900900060020471790AA2D5200C14300E09B3
:100C5900B910020404B9080104A2D5200F025001F9
:100C690004200B68920BB50E005034C0E07F203091
:100C79000C197F30A20B720F720E500F120CA8C202
:100C89000BC20FC20EC2117F30800F300E03E9C0B4
:100C9900E01208EB300E03D0E0F9D0E0B50ECC300D
:100CA9000E177F30B9100C1208EB7F58300D077FF3
:100CB900788003B908031208EB300B057F2D020871
:100CC900EB7F202011F87F2B200FF322920B80CF8E
:100CD9007F00B40700500B2460F582E43400F583EB
:100CE900E0FF22286E756C6C2900D20A1208A83020
:100CF9000AF8C20A780E30D50108F60209572D50B4
:100D09004349581208A82403B405004001E4900D92
:100D190007931208DC743A1208DCD20C750E04022F
:020D29000B2D90
:1003EA00E9D2E7C933E833F892D5EDD2E7CD33EC59
:0703FA0033FC5002B2D522D2
:10040100EC30E7100FBF000C0EBE00080DBD00045C
:100411000BEB6014A2D5EB13FCED92E7FD2274FF08
:10042100FCFDFEFF22E480F8A2D574FF13FC7D8061
:03043100E480EF75
:10043400F920E73624F950037907E4F42402FBE5B4
:1004440082158270021583DBF6E024FB501BE96001
:1004540014E4F0E582158270021583E004F0B40A16
:0D04640008E4F0D9EE7401F00A22C2D5229E
:10047100ED33EC3392D5FA602AB4FF33EDC2E77B5A
:10048100FF60067A047996E4227A04799F20D504E4
:100491007A04799A224E614E002B494E46002D492D
:1004A1004E4600E47A08F0A3DAFC7B00740722C010
:1004B10083C082ECC0E0EDC0E0EEC0E0EFC0E0EA56
:1004C10075F010A4CAABF075F04DA42BFBE435F028
:1004D100FCEA2410FAEB34C5FBEC34D9FCEDC2E79D
:1004E100FF75F056A4F42411C5F0F434C58FF0A4BF
:1004F1002AE5F03BE43CF020E7141205A6D0E0FF2A
:10050100D0E0FED0E0FDD0E0FC12025F8014F404E4
:100511001205A6D0E0FFD0E0FED0E0FDD0E0FC1255
:100521000156D082D083E0FAEDD2E7CD33EC33240B
:1005310082FBE4C3CF33CFCE33CECD33CD33DBF328
:100541007B0775F00A846004F0A31B0AE5F0F0A3B1
:100551008FF0740AA4FFACF08EF0740AA42CFEACE8
:10056100F050010C8DF0740AA42CFDE435F0F0A3D9
:05057100DBDE7407222F
:100576003F8000004120000042C80000447A00008D
:10058600461C400047C35000497424004B1896800F
:100596004CBEBC205A0E1BCA6753C21C749DC5AE06
:1005A600FB60065407601C23231205D4EB54386005
:1005B600091205C01205CF120156ECF8EDF9EEFA54
:1005C600EFCB22EB1205CF80F1543803241C9005A3
:1005D60076FE93FC0EEE93FD0EEE930ECE93FF2267
:10193F00021E1CE493A3F8E493A34003F68001F284
:10194F0008DFF48029E493A3F85407240CC8C333A9
:10195F00C4540F4420C8834004F456800146F6DF78
:10196F00E4800B0102040810204080901CA0E47E4C
:10197F00019360BCA3FF543F30E509541FFEE4936D
:10198F00A360010ECF54C025E060A840B8E493A334
:10199F00FAE493A3F8E493A3C8C582C8CAC583CA5F
:1019AF00F0A3C8C582C8CAC583CADFE9DEE780BE17
:011CE1000002
:1005E600BB010689828A83E0225002E722BBFE0213
:0905F600E32289828A83E4932246
:1005FF00BB010CE58229F582E5833AF583E02250B1
:10060F0006E92582F8E622BBFE06E92582F8E222FA
:0D061F00E58229F582E5833AF583E4932214
:10062C00BB010689828A83F0225002F722BBFE01AD
:02063C00F322A7
:10063E00BC000BBE0029EF8DF084FFADF022E4CCA0
:10064E00F875F008EF2FFFEE33FEEC33FCEE9DEC69
:10065E00984005FCEE9DFE0FD5F0E9E4CEFD22EDAF
:10066E00F8F5F0EE8420D21CFEADF075F008EF2FF9
:10067E00FFED33FD4007985006D5F0F222C398FDEA
:05068E000FD5F0EA2287
:10069300A3F8E0C5F025F0F0E5821582700215831A
:0606A300E0C838F0E82277
:1006A900E88FF0A4CC8BF0A42CFCE98EF0A42CFCF0
:1006B9008AF0EDA42CFCEA8EF0A4CDA8F08BF0A46E
:1006C9002DCC3825F0FDE98FF0A42CCD35F0FCEBCD
:1006D9008EF0A4FEA9F0EB8FF0A4CFC5F02ECD3992
:0F06E900FEE43CFCEAA42DCE35F0FDE43CFC22FF
:1006F80075F008758200EF2FFFEE33FECD33CDCCB9
:1007080033CCC58233C5829BED9AEC99E58298403B
:100718000CF582EE9BFEED9AFDEC99FC0FD5F0D618
:10072800E4CEFBE4CDFAE4CCF9A88222B800C1B942
:100738000059BA002DEC8BF084CFCECDFCE5F0CB80
:10074800F97818EF2FFFEE33FEED33FDEC33FCEBB9
:1007580033FB10D703994004EB99FB0FD8E5E4F974
:10076800FA227818EF2FFFEE33FEED33FDEC33FC61
:10077800C933C910D7059BE99A4007EC9BFCE99A55
:10078800F90FD8E0E4C9FAE4CCFB2275F010EF2F9A
:10079800FFEE33FEED33FDCC33CCC833C810D7079A
:1007A8009BEC9AE899400AED9BFDEC9AFCE899F8D5
:0E07B8000FD5F0DAE4CDFBE4CCFAE4C8F92268
:0E07C600C3E49FFFE49EFEE49DFDE49CFC2244
:1007D400EB9FF5F0EA9E42F0E99D42F0E89C45F07B
:0107E40022F2
:1007E500E8600FECC313FCED13FDEE13FEEF13FFF2
:0307F500D8F12216
:0C07F800ECF0A3EDF0A3EEF0A3EFF02274
:10080400A8828583F0D083D08212081B12081B12A1
:10081400081B12081BE473E493A3C583C5F0C583C6
:10082400C8C582C8F0A3C583C5F0C583C8C582C83E
:0108340022A1
:10083500F8E0FBA3A3E0F925F0F0E582158270024C
:070845001583E0FA38F022F0
:09084C00EBF0A3EAF0A3E9F022AD
:10085500D083D082F8E4937012740193700DA3A332
:1008650093F8740193F5828883E473740293686046
:06087500EFA3A3A380DF46
:10087B00D083D082F8E4937012740193700DA3A30C
:10088B0093F8740193F5828883E473740293B5F043
:0D089B00067403936860E9A3A3A3A380D8AB
:00000001FF
