:10196B000D0A20424720566F6C74616765203D203D
:10197B0025650D0A000D0A2056444420766F6C74C1
:10198B00616765203D2025650D0A004144433A20DF
:10199B003078253458202825652076290D0A000D2E
:1019AB000A50574D3A3078257820202C30782578FE
:0519BB000D0A0D0A00F9
:1019C000410071004100770041008C0041007F011F
:1019D0004100790042007A000044008000000000CD
:1019E00041007C0041007D02410068014200690025
:1019F0000042006B000042006D000042006F0000DA
:101B4F00900068E06005D285E4F022C285900068BD
:031B5F007401F01E
:011B62002260
:071BB40053B1DF43B2202210
:100FB800A2AF9212C2AF75C7AA75C755439F01A2C7
:100FC8001292AF75AF0475A60DE4F5A7A2AF921201
:100FD800C2AF75C7AA75C75543A401A21292AFAD97
:100FE800AEED54F0900037F0ED540FFD75A60CE40B
:100FF800F5A7A2AF9212C2AF75C7AA75C75543A489
:1010080001A21292AFAFAEEF75F010A47C002DFDD7
:10101800EC35F0FCE41202829000731207B0E4FF92
:10102800FE7D407C40900073E0F8A3E0F9A3E0FA6D
:10103800A3E0FB12005EE4FBFA79807840120167B6
:101048009000881207B0A2AF9212C2AF75C7AA75F6
:10105800C755539FFEA21292AF43E80853E8F843DE
:10106800E10143E13043E20E43A210C2EFD2EE3079
:10107800EFFD900072E5C3F0900078E5C2F0AFC3D1
:10108800EF75F010A4ADC27C002DFDEC35F0FCE44A
:10109800120282AB07AA06A905A804E4FFFE7D8018
:1010A8007C45120167900088E0F8A3E0F9A3E0FA14
:1010B800A3E0FB12005E9000841207B07BFF7A1950
:1010C800796B900088E0FCA3E0FDA3E0FEA3E0FFBD
:1010D80090003B1207B01208CB7BFF7A19798090F9
:1010E8000084E0FCA3E0FDA3E0FEA3E0FF90003B4A
:0610F8001207B01208CB44
:0110FE0022CF
:061BBB0090007CE0FF2217
:061BC10090007CEFF02211
:08123600900006EEF0A3EFF0BA
:10123E00121BBBEF7003021343E4FF121BC190009D
:10124E007DE0146073046003021343900080E0F8A5
:10125E00A3E0F9A3E0FAA3E0FB900006E0FEA3E012
:10126E00FFE4FCFDEB2FFFEA3EFEED39FDEC38FC12
:10127E009000801207B0900069E475F00112065CD0
:10128E00FEC3E5F0940FEE94005003021343E49076
:10129E000069F0A3F0900080E0FCA3E0FDA3E0FE67
:1012AE00A3E0FF780412079D90007AEEF0A3EFF012
:1012BE0090007D7401F0807D900080E0FCA3E0FD45
:1012CE00A3E0FEA3E0FFC006C00790007AE0FEA3F5
:1012DE00E0FFFBAA06E4D007D006C3EF9BFFEE9A11
:1012EE00FEED9400FDEC9400FC9000801207B0908F
:1012FE000080E0F8A3E0F9A3E0FAA3E0FB9000067B
:10130E00E0FEA3E0FFE4FCFDEB2FFFEA3EFEED392D
:10131E00FDEC38FC9000801207B0900080E0FCA33A
:10132E00E0FDA3E0FEA3E0FF780412079D90007A93
:0D133E00EEF0A3EFF090007AE0FEA3E0FFD8
:01134B00227F
:101AFF00E490007DF09000801207BC00000000E42D
:0B1B0F0090007AF0A3F0FF121BC1222F
:1015DF00E4900000F0A3F0900002F0A3F09000045C
:1015EF00F0A3F0AFC3EF75F010A4ADC27C002DFFD8
:1015FF00EC35F0A2E713FEEF1325E0FFEE33FE12FA
:10160F001236900000EEF0A3EFF0900000E0FFA381
:10161F00E090003BCFF0A3EFF0900000E0FCA3E0E0
:10162F00FDE4120282900084E0F8A3E0F9A3E0FA4F
:10163F00A3E0FB12005E7B007AF0797F7845120100
:10164F006790003D1207B07BFF7A1979961208CB8D
:10165F00900000E0FCA3E0FDE4120282E4FBFAF943
:10166F00F81202044007E4900000F0A3F0C39000CA
:10167F0000E0941040067410F0A3E4F0D2EE900056
:06168F0000E0FEA3E0FFF5
:011695002232
:03005B00021A6E18
:101A6E00C0E0C083C082C0D075D000C0077F011215
:0F1A7E001BC1C2EFD007D0D0D082D083D0E032CE
:10134C00900036EFF0120FB8900036E0B408004071
:10135C0003021434901367F828287302137F0213C6
:10136C00940213AC0213C30213DA0213F102140831
:10137C0002141F53E8F043B38053B47FE4F5F643F3
:10138C00F60143E10102143453E8F043E80143ACA5
:10139C000153ADFEE4F5F643F60243E101021434C9
:1013AC0053E8F043E80243B18053B27FE4F5F643CF
:1013BC00F60443E101807153E8F043E80343B14084
:1013CC0053B2BFE4F5F643F60843E101805A53E803
:1013DC00F043E80443B12053B2DFE4F5F643F610D2
:1013EC0043E101804353E8F043E80543B11053B2A5
:1013FC00EFE4F5F643F62043E101802C53E8F0438B
:10140C00E80643B10853B2F7E4F5F643F64043E17E
:10141C0001801553E8F043E80743B30253B4FDE4ED
:10142C00F5F643F68043E10143E13043E20E53A26B
:0D143C00EFC2EFD2EED2AED2AF121AFF22F5
:0F1B7600AD07AC06ECF5D3EDF5DBD2DED2DF2206
:0F1B8500AD07AC06ECF5D2EDF5DAD2DED2DF22F9
:1017D800900036EEF0A3EFF043DE0243DE0153DF64
:1017E8003F43DF0453DFFC900036E0FEA3E0FFFB3D
:1017F800AA06E4F9F87F607EE37D16FC1206FDEF89
:1018080024FFFFEE34FFFEED34FFFDEC34FFFC78DF
:101818000812079D8FD1900036E0FEA3E0FFFBAAD7
:1018280006E4F9F87F607EE37D16FC1206FDEF24DE
:10183800FFFFEE34FFFEED34FFFDEC34FFFCEFE478
:101848008FD97BFF7A1979AA90003BE5D1F0A3E5FF
:10185800D9F01208CB7F647E00121B857F32121BE1
:021868007622E6
:10169600900079E0FF04F0EFC394124040E4F0902C
:1016A600008CE0FF74649FFFE49400FE121B85909B
:1016B600007FE0601690008CE004F0B4641FE490B4
:1016C600007FF090008C7464F0801290008CE0141F
:1016D600F0700A90007F04F0E490008CF090006FA8
:1016E600E475F00112065CFEC3E5F094F4EE940195
:1016F600400AE490006FF0A3F0121B4F90006DE4D7
:1017060075F00112065CFEC3E5F09414EE940040F9
:101716000AE490006DF0A3F01215DF90006BE475FB
:10172600F00112065CFEC3E5F094E8EE9403400770
:07173600E490006BF0A3F04A
:01173D002289
:03000B0002000EE2
:10000E00C0E0C0F0C083C082C0D075D000C000C0B8
:10001E0001C002C003C004C005C006C00790007135
:10002E00E0F58C900077E0F58AC28D121696D00717
:10003E00D006D005D004D003D002D001D000D0D04D
:09004E00D082D083D0F0D0E03262
:101A0100E4900036F0A3F0F5915389F043890190F9
:101A1100007174F8F09000777430F0758CF8F58AE5
:061A2100D2A9D2AFD28C65
:011A2700229C
:101AAB0090003A7401F0A31207BC0001C2007F0042
:0C1ABB007E367D6E7C01120CE3D2992275
:101B630012186AE4F5B1F5B2F5B3F5B4F5ACF5AD19
:031B7300D2AF22CC
:101A8D00121B63121AAB7F987E3A1217D87F05127C
:0E1A9D00134C121BB4121A01121B4F80FB22B5
:080003003099FDC2998F99228A
:1018F800A2AF9212C2AF75C7AA75C755439F01A27E
:101908001292AF75A630E4F5A775AF04A2AF921294
:10191800C2AF75C7AA75C75543A401A21292AF8575
:10192800AE1275A631F5A7A2AF9212C2AF75C7AABB
:1019380075C75543A401A21292AF85AE13A2AF9208
:1019480012C2AF75C7AA75C755539FFEA21292AFB0
:1019580075C7AA75C75585128475C7AA75C75585F1
:021968001385E5
:01196A00225A
:10186A00E58720E4030218F7A2AF9212C2AF75C748
:10187A00AA75C755439F01A21292AF75A638E4F51F
:10188A00A775AF04A2AF9212C2AF75C7AA75C755A2
:10189A0043A401A21292AF85AE0D75A639F5A7A28F
:1018AA00AF9212C2AF75C7AA75C75543A401A21257
:1018BA0092AF85AE0EA2AF9212C2AF75C7AA75C714
:1018CA0055539FFEA21292AF75C7AA75C755850DCB
:1018DA008475C7AA75C755850E85A2AF9212C2AF85
:0D18EA0075C7AA75C755539FFEA21292AF95
:0118F70022CE
:101A28009000B41207B053B1BF53B2BF53B17F5344
:101A3800B27F759850438920438780438E1053C4E2
:041A4800DFD28E2239
:101A4C009000B81207B053B1BF53B2BF53B17F531C
:101A5C00B27F75985043878053C4F853C4DF43C496
:021A6C0008224E
:071B94003098FDAF99C298E3
:011B9B002227
:081B9C00C2998F993099FD22D6
:101AC7009000BC1207B043B10453B2FB53B3BF53EA
:0C1AD700B4BF75F85275C4F843C408226F
:071BA40030F8FDAF9AC2F812
:011BAB002217
:081BAC00C2F98F9A30F9FD2205
:101449009000A41207B0538EF74389019000A8E0D9
:101459007002A3E070030215127B407A42790F787B
:10146900009000A4E0FCA3E0FDA3E0FEA3E0FF12CE
:1014790006FDA804A905AA06AB079000AAE0FEA3E9
:10148900E0FFE4FCFD120672E47B0CFAF9F812069F
:10149900FDC374FF9FFF74FF9EFEE49DFDE49CFC69
:1014A900EFE48F8A7B407A42790FF89000A4E0FC40
:1014B900A3E0FDA3E0FEA3E0FF1206FDA804A90531
:1014C900AA06AB079000AAE0FEA3E0FFE4FCFD1228
:1014D9000672E47B0CFAF9F81206FDC374FF9FFF4C
:1014E90074FF9EFEE49DFDE49CFC780812079D8F25
:1014F9008CD28C308DFDC28D9000A9E024FFF09034
:0C15090000A8E034FFF0021455C28C2250
:101515009000AC1207B0538EEF4389109000B0E0F5
:101525007002A3E070030215DC7B407A42790F78E4
:10153500009000ACE0FCA3E0FDA3E0FEA3E0FF12F9
:1015450006FDC004A905AA06AB079000B2E0FEA3FC
:10155500E0FF7C007D0C120607E4FCFDD0001206BE
:1015650072C3E49FFFE49EFE74019DFDE49CFCEFC5
:10157500E48F8B7B407A42790FF89000ACE0FCA3B6
:10158500E0FDA3E0FEA3E0FF1206FDC004A905AA45
:1015950006AB079000B2E0FEA3E0FF7C007D0C12D5
:1015A5000607E4FCFDD000120672C3E49FFFE49E2B
:1015B500FE74019DFDE49CFC780812079D8F8DD279
:1015C5008E308FFDC28F9000B1E024FFF09000B007
:0A15D500E034FFF0021521C28E225F
:100E680090008D1207B0E4F591900091E0FEA3E0A8
:100E78008EF01208330EA100010EA600040EAE007B
:100E8800100EB600200EBE00400EC600800ECE0129
:100E9800000ED6020000000EDC53C98F803653C9FD
:100EA8008F43C910802E53C98F43C920802653C948
:100EB8008F43C930801E53C98F43C940801653C918
:100EC8008F43C950800E53C98F43C960800653C9E8
:100ED8008F43C970C2C843C98043C904900093E0D6
:100EE8007002A3E07003020FB57B407A42790F7855
:100EF8000090008DE0FCA3E0FDA3E0FEA3E0FF125C
:100F080006FD900095E0F8A3E0F9A3E0FAA3E0FB62
:100F1800120672C006C007900091E0FEA3E0FFFB36
:100F2800AA06E4F9F8D007D0061206FDC3E49FFF2D
:100F3800E49EFE74019DFDE49CFCEFE48FCC7B40B5
:100F48007A42790FF890008DE0FCA3E0FDA3E0FE63
:100F5800A3E0FF1206FD900095E0F8A3E0F9A3E0F6
:100F6800FAA3E0FB120672C006C007900091E0FEEB
:100F7800A3E0FFFBAA06E4F9F8D007D0061206FDA5
:100F8800C3E49FFFE49EFE74019DFDE49CFC780889
:100F980012079D8FCDD2CA30CFFDC2CF900094E00A
:100FA80024FFF0900093E034FFF0020EE4C2CA225E
:1010FF009000991207B0E4F59190009DE024FE60F6
:10110F002124FE602524FC602924F8602D24F06042
:10111F003124E0603524C06039247F703B53C4F81C
:10112F00803653C4F843C401802E53C4F843C4021D
:10113F00802653C4F843C403801E53C4F843C40429
:10114F00801653C4F843C405800E53C4F843C40635
:10115F00800653C4F843C40790009EE07002A3E0DA
:10116F00700302123253C4EF7B407A42790F78003A
:10117F00900099E0FCA3E0FDA3E0FEA3E0FF1206C0
:10118F00FD9000A0E0F8A3E0F9A3E0FAA3E0FB12C2
:10119F000672C00790009DE0FFFBE4FAF9F8D00754
:1011AF001206FDC3E49FFFE49EFE74019DFDE49CC7
:1011BF00FCEFE48FC57B407A42790FF8900099E0FD
:1011CF00FCA3E0FDA3E0FEA3E0FF1206FD9000A04C
:1011DF00E0F8A3E0F9A3E0FAA3E0FB120672C00760
:1011EF0090009DE0FFFBE4FAF9F8D0071206FDC36B
:1011FF00E49FFFE49EFE74019DFDE49CFC780812C1
:10120F00079D8FC643C408E5C444EF64EF60F853ED
:10121F00C4EF90009FE024FFF090009EE034FFF0B9
:07122F0002116753C4F7220E
:101AE300EF14600D14600D14600E2403700DD2A961
:0C1AF30022D2AB22439B8022439C0222A3
:100CE3009000361207B090003AE014605814700375
:100CF300020DDB24026003020E6753B1BF43B2400F
:100D030043B18053B27F7598504389204387804312
:100D13008E1053C4DFE47B10FAF9F8900036E0FC40
:100D2300A3E0FDA3E0FEA3E0FF1206FD90003BE07D
:100D3300F8A3E0F9A3E0FAA3E0FB1206FDEFF40445
:100D4300F58DD28E2253B1BF43B24043B18053B22B
:100D53007F75985043878053C4F843C420E47B10C5
:100D6300FAF9F8900036E0FCA3E0FDA3E0FEA3E06F
:100D7300FF1206FD90003BE0F8A3E0F9A3E0FAA31D
:100D8300E0FB1206FDC3E49FFFE49EFE74019DFD9C
:100D9300E49CFC780812079D8FC6E47B10FAF9F8EF
:100DA300900036E0FCA3E0FDA3E0FEA3E0FF120603
:100DB300FD90003BE0F8A3E0F9A3E0FAA3E0FB1207
:100DC30006FDC3E49FFFE49EFE74019DFDE49CFCCD
:100DD300EFE48FC543C4082253B3BF43B44043B1C8
:100DE3000453B2FB75F85075C480E47B10FAF9F82C
:100DF300900036E0FCA3E0FDA3E0FEA3E0FF1206B3
:100E0300FD90003BE0F8A3E0F9A3E0FAA3E0FB12B6
:100E130006FDC3E49FFFE49EFE74019DFDE49CFC7C
:100E2300780812079D8FC6E47B10FAF9F890003614
:100E3300E0FCA3E0FDA3E0FEA3E0FF1206FD9000AB
:100E43003BE0F8A3E0F9A3E0FAA3E0FB1206FDC33D
:100E5300E49FFFE49EFE74019DFDE49CFCEFE48FA0
:050E6300C543C4082294
:101B3500EF14600C0470103098FDAE99C2988007C0
:091B450030F8FDAE9AC2F8AF06BB
:011B4E002274
:101B1A00EF14600D047013C2998D9920990C80FB03
:0B1B2A0022C2F9AF058F9A30F9FD22AE
:0300000002173EA6
:10173E00787FE4F6D8FD9000007FFF7E03E4F0A3EF
:0A174E00DFFCDEFA7581220217931A
:10005E00EC4D6011E8497017ED33EC3304600DE49C
:10006E00FCFFFEFD22E933E8330470F80202F012C1
:10007E0002BB58046009E4CC2481500628500902C2
:10008E0002FA2840030202F7C0E0EB4A7044B9803E
:10009E0006D0E0FB0202E6EF4E701CBD8008EBFFBF
:1000AE00EAFEE9FD80EBE98DF0A4FEE5F0020147E2
:1000BE00E9CDF9EAFEEBFFEF89F0A4FCE5F0CE897D
:1000CE00F0A42EFFE435F0CD89F0A42DFEE435F03A
:1000DE008067EF4E7005BD80D780C3EF8BF0A4AC68
:1000EE00F0EE8BF0A42CFCE435F0F8EF8AF0A42CA3
:1000FE00E5F038FCE433CB8DF0A42CFCE5F03BF8B6
:10010E00EE8AF0A42CFCE5F038F8E433CF89F0A4A5
:10011E002CFCE5F038CF3400CE89F0A42FFFE5F0AB
:10012E003EFEE433C98DF0A42EFEE5F039CD8AF003
:10013E00A42FFFE5F03EFEE43DFD33D0E0FB50077B
:10014E000BBB000F0202FAEC2CFCEF33FFEE33FE7A
:06015E00ED33FD0202D2A8
:100164000202FAEC5D046005E8590470030202F02F
:100174001202BB580460F6EC4860F2EC7004FDFE19
:10018400FF22C860DB2481C85009C398600250066E
:100194000202F79850CAF582E9294B4A7005AB82EE
:1001A4000202E675F0007C1A7880C3EF9BEE9AEDAC
:1001B40099400DC3EF9BFFEE9AFEED99FDE842F0E6
:1001C400DC23ACF0D0E0FFD0E0FED0E0FDAB822039
:1001D400E7101BEB60BAEC2CFCEF33FFEE33FEEDC3
:1001E40033FD0202D2E803F830E705C0F075F000F1
:1001F400EF2FFFEE33FEED33FD40B830E7C280AAA7
:1002040074F8CC6480CCC86480C8F58204604FC3A1
:10021400EB9FF5F0EA9E42F0E99D42F0E89C45F040
:10022400603C501DE5825FFFE582D313CB5BCBF4CA
:100234002B5582FB50280ABA002409B900200880F3
:100244001DE5825BFBE582D313CF5FCFF4C3132F8D
:100254005582FF50090EBE00050DBD00010CC3EB15
:100264009FF5F0EA9E42F0E99D42F0E89C45F0607B
:0902740007CC4820E701B3EC229D
:10027D0075F020800E75F010800575F0087D007EFC
:10028D00007F003392D530D50312078FEC33401029
:10029D00EF33FFEE33FEED33FDEC33FCD5F0ED2205
:0E02AD00E5F0247EA2D513CC92E7CDCEFF2241
:10086000E50D243BF582E43400F583E0050D22908C
:10087000003830100390003BE475F0011207ED02E0
:1008800005AF2009E97F2ED2098018EF540F24907C
:10089000D43440D4FF300D0BEF24BFB41A00500302
:1008A0002461FFE50E6002150E0511E511700205C9
:1008B0001030100E900038E475F0011207EDEF02D1
:1008C00005F50200037403D2108003E4C210F50D95
:1008D000900038120804E4F50EF510F511E50E60ED
:1008E000077F201208A380F5750FFFC20AC209C254
:1008F0000BC20CC20EC20FC21112086FFF700D3076
:1009000010057F001208B4AF11AE1022B4255FC2EB
:10091000D5C20D12086FFF24D0B40A00501A75F02A
:100920000A780E30D50508B6FF0106C6A426F620C3
:10093000D5047002D20C80D924CFB41A00EF500431
:10094000C2E5D20D020BA6D20A80C6D20980C0D25F
:100950000B80BCD2D580BAD20E80B47F201208A3FF
:10096000200B077401B50E0040F1120860FF120859
:10097000A30208DDD211D20F8095120860FB120885
:1009800060FA120860F94A4B700679A47A0C7BFF72
:10099000200B2EE50E602A7E008E827583001205E4
:1009A000C860060EEE650F70F0C2D5EBC0E0EAC07D
:1009B000E0E9C0E0EE120C07D0E0F9D0E0FAD0E0B8
:1009C000FB1205AFFF60AAEBC0E0EAC0E0E9C0E0BF
:1009D0001208A3D0E02401F9D0E03400FAD0E0FB03
:1009E000E50F0460DCD50FD98087D20B80A2120BF3
:1009F000E960F7E50F700104120305A90F600DE52A
:100A00000F600914F50F120C91EF60F3EA30E70262
:100A1000F404C3995079EAF4250F0430E701E404A3
:100A2000F50F800D120BE960C1EA050F250F1203C7
:100A300005EA900067F030E701E4250F04D50F04C4
:100A4000200E0114120C07E4C0E0120C9190006714
:100A5000E0601320E70714F012088B802204F0D026
:100A6000E014C0E07F0012088BE50F6007120882D7
:100A7000150F800B300E03120882D0E00208DDD083
:100A8000E00480C4120BE9609EE50F041203059098
:100A90000067EAF0E50F200E026001042404120C46
:010AA000074E
:100AA10074FF04C0E0120C9112088BE50F200E02B6
:100AB1006003120882D0E0B50FE87F4512089590D7
:100AC1000067E07F2B30E7047F2DF404C0E01208BB
:100AD100A3D0E075F00A84C0F012088CD0E01208AF
:100AE1008C0208DD791080027908C20FC2118008DA
:100AF100D2D5790A8004790AC2D5E50F047002F5CE
:100B01000FE4FAFDFEFF120860FC7B08200A1312B5
:100B11000860FD7B1030090A120860FE120860FFB0
:100B21007B20EC3382D592D55013C3E43009069F64
:100B3100FFE49EFEE4200A039DFDE49CFCE4CBF867
:100B4100C20AEC700CCFCECDCCE824F8F870F3805B
:100B510017C3EF33FFEE33FEED33FDEC33FCEB3324
:100B6100FB994002FB0FD8E9EB300A05F8D0E0C44D
:100B710048B20AC0E00AEC4D4E4F78207B0070C2AB
:100B8100EAB50F0040BCC0E0120C09D0F0D0E02063
:100B91000A04C4C0E0C4B20AC0F012088CD0F0D577
:100BA100F0EB0208DD12080D097A530AE558094BEA
:100BB1004C0947420AE94F0AF1440AF149096043E5
:100BC1000AF7550A24460A844509EE470CC4500920
:100BD1004F2D09532E09762B0957230974200CAD8B
:100BE1002A090F480000096EE50FB4FF03750F06CF
:100BF100120860FC120860FD120860FE120860FF16
:100C0100900060020342790AA2D5200C14300E092B
:100C1100B910020404B9080104A2D5200F02500141
:100C210004200B68920BB50E005034C0E07F2030D9
:100C31000C197F30A20B720F720E500F120C60C292
:100C41000BC20FC20EC2117F30800F300E03E9C0FC
:100C5100E01208A3300E03D0E0F9D0E0B50ECC309D
:100C61000E177F30B9100C1208A37F58300D077F83
:100C7100788003B908031208A3300B057F2D020801
:100C8100A37F202011F87F2B200FF322920B80CF1E
:100C91007F00B40700500B2460F582E43400F58333
:100CA100E0FF22286E756C6C2900D20A12086030B0
:100CB1000AF8C20A780E30D50108F602090F2D5044
:100CC1004349581208602403B405004001E4900C24
:100CD100BF93120894743A120894D20C750E040250
:020CE1000AE522
:1002BB00E9D2E7C933E833F892D5EDD2E7CD33EC89
:0702CB0033FC5002B2D52202
:1002D200EC30E7100FBF000C0EBE00080DBD00048D
:1002E2000BEB6014A2D5EB13FCED92E7FD2274FF39
:1002F200FCFDFEFF22E480F8A2D574FF13FC7D8092
:03030200E480EFA5
:10030500F920E73624F950037907E4F42402FBE5E4
:1003150082158270021583DBF6E024FB501BE96031
:1003250014E4F0E582158270021583E004F0B40A46
:0D03350008E4F0D9EE7401F00A22C2D522CE
:10034200ED33EC3392D5FA602AB4FF33EDC2E77B8A
:10035200FF60067A037967E4227A03797020D50474
:100362007A03796B224E614E002B494E46002D498D
:100372004E4600E47A08F0A3DAFC7B00740722C040
:1003820083C082ECC0E0EDC0E0EEC0E0EFC0E0EA86
:1003920075F010A4CAABF075F04DA42BFBE435F058
:1003A200FCEA2410FAEB34C5FBEC34D9FCEDC2E7CD
:1003B200FF75F056A4F42411C5F0F434C58FF0A4EF
:1003C2002AE5F03BE43CF020E71412056FD0E0FF91
:1003D200D0E0FED0E0FDD0E0FC1201678014F4040E
:1003E20012056FD0E0FFD0E0FED0E0FDD0E0FC12BD
:1003F200005ED082D083E0FAEDD2E7CD33EC332435
:1004020082FBE4C3CF33CFCE33CECD33CD33DBF358
:100412007B0775F00A846004F0A31B0AE5F0F0A3E1
:100422008FF0740AA4FFACF08EF0740AA42CFEAC18
:10043200F050010C8DF0740AA42CFDE435F0F0A309
:05044200DBDE7407225F
:100447000202F0E86480F8E933E83360110460F0F1
:10045700ED33EC337009E8FCE9FDEAFEEBFF22041B
:1004670060DED3EB9FEA9EE99DE8C2E78CF0C2F716
:1004770095F0400CE8CCF8E9CDF9EACEFAEBCFFBE2
:100487001202BB85D0F05804700320D5B3E804707E
:10049700075002B2D50202FA92D5EC0460F7E4CC19
:1004A700C0E0C398F8603B94186008400DD0E0FBAB
:1004B7000202D2E4FBFAC9FC8028E830E406E4C96A
:1004C700FBE4CAFCE830E305E4C9CACBFCE85407FF
:1004D7006010F8C3E913F9EA13FAEB13FBEC13FC0A
:1004E700D8F130F52FC3E49CFCEF9BFFEE9AFEEDAD
:1004F70099FDD0E0FBEF4E4D4C701222DB03020258
:10050700F7EC2CFCEF33FFEE33FEED33FDED30E778
:10051700EB0202D2EF2BFFEE3AFEED39FDD0E0FB06
:1005270050130BBB00030202FAED13FDEE13FEEFAF
:0805370013FFEC13FC0202D2D9
:10053F003F8000004120000042C80000447A0000C4
:10054F00461C400047C35000497424004B18968046
:10055F004CBEBC205A0E1BCA6753C21C749DC5AE3D
:10056F00FB60065407601C232312059DEB54386073
:10057F000912058912059812005EECF8EDF9EEFAF2
:10058F00EFCB22EB12059880F1543803241C900511
:10059F003FFE93FC0EEE93FD0EEE930ECE93FF22D5
:10175800021A8DE493A3F8E493A34003F68001F200
:1017680008DFF48029E493A3F85407240CC8C33392
:10177800C4540F4420C8834004F456800146F6DF61
:10178800E4800B01020408102040809019C0E47E18
:10179800019360BCA3FF543F30E509541FFEE49356
:1017A800A360010ECF54C025E060A840B8E493A31D
:1017B800FAE493A3F8E493A3C8C582C8CAC583CA48
:1017C800F0A3C8C582C8CAC583CADFE9DEE780BE00
:011A000000E5
:1005AF00BB010689828A83E0225002E722BBFE024A
:0905BF00E32289828A83E493227D
:1005C800BB010CE58229F582E5833AF583E02250E8
:1005D80006E92582F8E622BBFE06E92582F8E22232
:0D05E800E58229F582E5833AF583E493224C
:1005F500BB010689828A83F0225002F722BBFE01E5
:02060500F322DE
:10060700BC000BBE0029EF8DF084FFADF022E4CCD7
:10061700F875F008EF2FFFEE33FEEC33FCEE9DECA0
:10062700984005FCEE9DFE0FD5F0E9E4CEFD22EDE6
:10063700F8F5F0EE8420D21CFEADF075F008EF2F30
:10064700FFED33FD4007985006D5F0F222C398FD21
:050657000FD5F0EA22BE
:10065C00A3F8E0C5F025F0F0E58215827002158351
:06066C00E0C838F0E822AE
:10067200E88FF0A4CC8BF0A42CFCE98EF0A42CFC27
:100682008AF0EDA42CFCEA8EF0A4CDA8F08BF0A4A5
:100692002DCC3825F0FDE98FF0A42CCD35F0FCEB04
:1006A2008EF0A4FEA9F0EB8FF0A4CFC5F02ECD39C9
:0F06B200FEE43CFCEAA42DCE35F0FDE43CFC2236
:1006C10075F008758200EF2FFFEE33FECD33CDCCF0
:1006D10033CCC58233C5829BED9AEC99E582984073
:1006E1000CF582EE9BFEED9AFDEC99FC0FD5F0D650
:1006F100E4CEFBE4CDFAE4CCF9A88222B800C1B97A
:100701000059BA002DEC8BF084CFCECDFCE5F0CBB7
:10071100F97818EF2FFFEE33FEED33FDEC33FCEBF0
:1007210033FB10D703994004EB99FB0FD8E5E4F9AB
:10073100FA227818EF2FFFEE33FEED33FDEC33FC98
:10074100C933C910D7059BE99A4007EC9BFCE99A8C
:10075100F90FD8E0E4C9FAE4CCFB2275F010EF2FD1
:10076100FFEE33FEED33FDCC33CCC833C810D707D1
:100771009BEC9AE899400AED9BFDEC9AFCE899F80C
:0E0781000FD5F0DAE4CDFBE4CCFAE4C8F9229F
:0E078F00C3E49FFFE49EFEE49DFDE49CFC227B
:10079D00E8600FECC313FCED13FDEE13FEEF13FF3A
:0307AD00D8F1225E
:0C07B000ECF0A3EDF0A3EEF0A3EFF022BC
:1007BC00A8828583F0D083D0821207D31207D3127C
:1007CC0007D31207D3E473E493A3C583C5F0C583A1
:1007DC00C8C582C8F0A3C583C5F0C583C8C582C887
:0107EC0022EA
:1007ED00F8E0FBA3A3E0F925F0F0E5821582700295
:0707FD001583E0FA38F02239
:09080400EBF0A3EAF0A3E9F022F5
:10080D00D083D082F8E4937012740193700DA3A37A
:10081D0093F8740193F5828883E47374029368608E
:06082D00EFA3A3A380DF8E
:10083300D083D082F8E4937012740193700DA3A354
:1008430093F8740193F5828883E473740293B5F08B
:0D085300067403936860E9A3A3A3A380D8F3
:00000001FF
